:020000040800F2
:100000003007002091010008D1010008D301000849
:10001000D7010008DB010008DF0100080000000034
:10002000000000000000000000000000E3010008E4
:10003000E501000800000000E7010008E9010008F0
:10004000AB010008AB010008AB010008AB010008E0
:10005000AB010008AB010008AB010008AB010008D0
:10006000AB010008AB010008AB010008AB010008C0
:10007000AB010008AB010008AB010008AB010008B0
:10008000AB010008AB010008AB010008AB010008A0
:10009000AB010008AB010008AB010008AB01000890
:1000A000AB010008AB010008AB010008AB01000880
:1000B000AB0100080F020008AB010008AB0100080B
:1000C000AB010008AB010008AB010008AB01000860
:1000D000AB01000835020008AB010008AB010008C5
:1000E000AB010008AB010008AB01000800F002F80A
:1000F00000F03FF80AA090E8000C82448344AAF183
:100100000107DA4501D100F034F8AFF2090EBAE880
:100110000F0013F0010F18BFFB1A43F0010318473B
:10012000DC320000FC320000103A24BF78C878C1ED
:10013000FAD8520724BF30C830C144BF04680C60ED
:10014000704700000023002400250026103A28BF35
:1001500078C1FBD8520728BF30C148BF0B60704739
:10016000642902F08B84002070471FB51FBD10B5B5
:1001700010BD02F03CFD1146FFF7F7FF00F079FAE1
:1001800002F05AFD03B4FFF7F2FF03BC02F05EFD7C
:100190000948804709480047FEE7FEE7FEE7FEE71B
:1001A000FEE7FEE7FEE7FEE7FEE7FEE70448054957
:1001B000054A064B7047000061030008ED00000887
:1001C00030010020300700203003002030030020E1
:1001D000704700BFFEE700BFFEE700BFFEE700BFBD
:1001E000FEE7704770477047704710B504460AE055
:1001F00000BF1F48008810F0400FFAD021781C483B
:1002000002F02CFB641C20780028F1D110BD10B541
:1002100018480068401C174908600121164802F080
:10022000CCF910B11548FFF7E0FF0121124802F0A8
:10023000D5F910BD10B540F225510D4802F092FBE2
:10024000012803D10A4802F00DFBC4B2302C03D1BF
:1002500000200B49086004E0312C02D1012008493C
:10026000086040F22551024802F0A6FB10BD0000D4
:1002700000380140000000200004004094000020ED
:100280002C0000200CB50020019000906B48006805
:1002900040F480306949086000BF6848006800F495
:1002A000003000900198401C0190009818B9019806
:1002B000B0F5A06FF1D16148006810F4003F02D0A2
:1002C0000120009001E0002000900098012842D118
:1002D0005B48006840F01000594908600846006813
:1002E00020F0030008600846006840F00200086043
:1002F000524840685149486008464068486008468E
:10030000406840F4806048600846406820F47C10F3
:1003100048600846406840F4E810486008460068B5
:1003200040F08070086000BF4448006810F0007F13
:10033000FAD04248406820F003004049486008462F
:10034000406840F00200486000BF3C48406800F050
:100350000C000828F9D10CBD10B5FFF793FF10BDB4
:1003600010B53648006840F001003449086008467E
:1003700040683449084031494860084600683249BD
:1003800008402E4908600846006820F48020086074
:100390000846406820F4FE0048604FF41F00886063
:1003A000FFF7DAFF4FF000602849086010BD10B574
:1003B000002100200022214B5B6803F00C0121B1D9
:1003C000042906D0082928D107E0214B214C2360BD
:1003D00027E01F4B1F4C236023E0184B5B6803F49E
:1003E0007010164B5B6803F48032022303EB9040DD
:1003F00022B9194B4343174C23600DE00F4B5B6848
:1004000013F4003F04D0144B4343124C236003E029
:100410000F4B43430F4C236003E00D4B0D4C236007
:1004200000BF00BF054B5B68C3F303130B4CE15CDB
:10043000084B1B68CB40074C236010BD00100240E6
:10044000002002400000FFF8FFFFF6FE08ED00E08C
:1004500000127A000400002000093D00080000207E
:1004600010B500BF4FF40031B54800F097FF0028E9
:10047000F8D10121B24800F08EFE00BFB149B0486A
:1004800000F08CFF0028F9D001229021AC4800F048
:10049000D8FE00BFAC49AA4800F05EFF0028F9D0A2
:1004A00000BFA9493E31A64800F056FF0028F8D009
:1004B000A34800F0C2FEA54908800021A04800F032
:1004C00082FE01219E4800F072FE00BF9E493E312F
:1004D0009B4800F041FF0028F8D0994800F0ADFE9D
:1004E0009A49488010BD10B50020994988804BF684
:1004F000FF70C880002008814FF4806048810001AF
:100500008881944808608E4800F0A3FD01218C4842
:1005100000F01DFE10BD10B54FF496408E490860E6
:1005200000208880C880088188810C2048818B4801
:1005300002F09BF8012240F22551884802F02DF983
:100540000121864802F01DF910BD10B50020844934
:100550000860012048714FF4602088600020C86066
:10056000012008747F4800F0AEF901231A461946AD
:100570007C4800F040FA01217A4800F0D0F979482F
:1005800000F0EFF900BF774800F0F0F90028FAD149
:10059000744800F0F5F900BF724800F0F6F9002841
:1005A000FAD101216F4800F0FAF910BD10B56320AF
:1005B0006D49888040F2077008800020C88048801C
:1005C0006A4801F0D5F96020694908800020088157
:1005D000012048800020C880644801F006FA01220A
:1005E0001146624801F03BFD0121604801F01CFD0D
:1005F00010BD10B51D205F49087001204870002013
:1006000088700120C870084600F0CDF825205949AF
:1006100008700020487088700120C870084600F0FB
:10062000C2F810BD10B50220534908800020C870E0
:10063000524800F0A9FB40204F4908801020C870A4
:10064000022088704D4800F09FFB4FF480604A49BB
:1006500008800420C870494800F096FBC020464935
:100660000880032088701C20C870454800F08CFB6F
:1006700010BD4FF4004000F0A6FF01210C2001F056
:100680003BF80121022001F044F8012140F2012051
:1006900001F032F80121880301F02EF8012148050C
:1006A00001F037F8FFF7BEFFFFF7A3FFFFF77EFF6C
:1006B000FFF74BFFFFF72FFFFFF715FF3EE029483D
:1006C00000F000FA2F49086008460068502190FBAE
:1006D000F1F4204602F034FE2B4908600846006819
:1006E00002F002FE064602F0B9FA044602F0B6FB3A
:1006F00026490860FFF7B4FE1448008823490968BA
:10070000884208DD22480068012804D140211B48A6
:1007100000F0E5FB0CE00D4800881C4909688842A0
:1007200002DB1B48006818B94021144800F0D9FBCF
:100730000648028817A1184802F058F9BFE70000E0
:10074000005400400100001002000300A800002037
:1007500084000020A08601007400002000380140C1
:1007600060000020002401404400002000040040FC
:100770004E0000201C00002018000020000801404E
:10078000000C014020000020240000202800002050
:100790002C00002025640D00940000203149014305
:1007A000314A1160704770B5002100230F22C478D0
:1007B0000CB32D4C246804F4E064C4F5E064210A11
:1007C000C1F10403CA40447804FA03F18478144068
:1007D00021430901254C0678A155047804F01F0532
:1007E0000124AC4005786D114FF0E02606EB85053D
:1007F000C5F8004109E0047804F01F050124AC406D
:100800001B4D0678761145F8264070BD194A0A40FE
:100810000243154B1B1F1A60704739B1124A121D53
:1008200012680243104B1B1D1A6006E00E4A121D8F
:10083000126882430C4B1B1D1A607047042808D1B4
:100840004FF0E021096941F004014FF0E02211610D
:1008500007E04FF0E021096921F004014FF0E022A8
:10086000116170470000FA050CED00E000E400E0C3
:1008700080E100E080FFFF1F10B50446FA48844283
:1008800008D10121401500F051FF0021601500F052
:100890004DFF17E0F548844208D10121001500F012
:1008A00045FF0021201500F041FF0BE0F048844295
:1008B00008D10121C80300F039FF00214FF40040A6
:1008C00000F034FF10BD30B5024600200023506810
:1008D000E84C20400D790C6844EA05242043506020
:1008E0009068E54C2040D1E902542C434D7944EA0C
:1008F000450420439060D06A20F470000C7C641E94
:10090000E4B2234340EA0350D06230BD00210160CD
:10091000017141718160C16001210174704721B191
:10092000826842F00102826003E0826822F00102E4
:100930008260704721B1826842F48072826003E075
:10094000826822F480728260704710B50023CBB2B7
:100950001AB144681C43446002E044689C4344600C
:1009600010BD816841F00801816070470146002098
:100970008A6812F0080F01D0012000E000207047C3
:10098000816841F0040181607047014600208A6857
:1009900012F0040F01D0012000E00020704721B1C7
:1009A000826842F4A002826003E0826822F4A0021E
:1009B00082607047014600208A6812F4800F01D0DF
:1009C000012000E00020704710B50A4600210023F6
:1009D000416821F46041531E41EA4331416010BD3A
:1009E00021B1426842F40062426003E0426822F4AE
:1009F000006242607047F0B504460D4600200021B9
:100A0000092D11DDE068A5F10A0606EB4607072669
:100A100006FA07F18843A5F10A0606EB460603FA33
:100A200006F10843E0600CE0206905EB4507072666
:100A300006FA07F1884305EB450603FA06F1084379
:100A40002061072A0FDA606B561E06EB86071F2609
:100A500006FA07F18843561E06EB860605FA06F1EC
:100A60000843606322E00D2A0FDA206BD61F06EBE5
:100A700086071F2606FA07F18843D61F06EB86066F
:100A800005FA06F10843206310E0E06AA2F10D06C2
:100A900006EB86071F2606FA07F18843A2F10D062A
:100AA00006EB860605FA06F10843E062F0BD21B1C7
:100AB000826842F48012826003E0826822F480122D
:100AC000826070470146C86C80B2704766484C30FF
:100AD0000068704721B1426842F48062426003E0DE
:100AE000426822F480624260704721B1426842F459
:100AF0008052426003E0426822F4805242607047B4
:100B00000A460021816821F4E04111438160704769
:100B100021B1826842F40042826003E0826822F4DC
:100B200000428260704721B1826842F40212826002
:100B300003E0826822F402128260704701460020BE
:100B40008A6812F4001F01D0012000E000207047E5
:100B5000F0B504461546002000220026092911DDC3
:100B6000E068A1F10A0707EB470C072707FA0CF228
:100B70009043A1F10A0707EB470703FA07F2104376
:100B8000E0600CE0206901EB410C072707FA0CF24A
:100B9000904301EB410703FA07F210432061A06B79
:100BA000C0F30156EF1C06F1010CA7EB0C0707EB95
:100BB000870C1F2707FA0CF29043EF1C06F1010C7B
:100BC000A7EB0C0707EB870701FA07F21043A063B6
:100BD000F0BD10B50A4600210023816B21F44011BD
:100BE000531E41EA0351816310BD08B500230093F1
:100BF0000090009B0B440093009B1A6008BD08B551
:100C0000024600200090009201F12800009B184449
:100C100000900098006880B208BD0A460021416833
:100C2000164B194011434160704741628262704720
:100C30000A460021416821F01F01114341607047BD
:100C400040B109490831096841F40001064A0832F7
:100C5000116007E004490831096821F40001024AE3
:100C60000832116070470000002401400028014054
:100C7000003C0140FFFEF0FFFDF7F1FFFFFD3FFFED
:100C80000246002013680B4201D0012000E0002042
:100C90007047CA430260704770B5024600200023C7
:100CA00000240B125568CEB205EA060415681D42F1
:100CB00002D00CB1012000E0002070BD00220A1219
:100CC000D34303607047000010B50446CA4884420D
:100CD00008D10121042000F029FD0021042000F0AA
:100CE00025FD46E0C548844208D10121082000F0D6
:100CF0001DFD0021082000F019FD3AE0C0488442A3
:100D000008D10121102000F011FD0021102000F079
:100D10000DFD2EE0BB48844208D10121202000F0C7
:100D200005FD0021202000F001FD22E0B6488442AC
:100D300008D10121402000F0F9FC0021402000F002
:100D4000F5FC16E0B148844208D10121802000F072
:100D5000EDFC0021802000F0E9FC0AE0AC48844270
:100D600007D10121801500F0E1FC0021A01500F061
:100D7000DDFC10BD10B50121084600F0D7FC0021B4
:100D8000012000F0D3FC10BD2DE9F0410246002502
:100D90000026002000230024002791F803C00CF057
:100DA0000F0591F803C01CF0100F03D091F802C09A
:100DB0004CEA050591F800C0BCF1000F31D0146871
:100DC00000202BE04FF0010C0CFA00F3B1F800C04A
:100DD0000CEA03069E4220D183004FF00F0C0CFA60
:100DE00003F7BC4305FA03FC4CEA040491F803C082
:100DF000BCF1280F06D14FF0010C0CFA00FCC2F830
:100E000014C00AE091F803C0BCF1480F05D14FF0BF
:100E1000010C0CFA00FCC2F810C0401C0828D1D309
:100E20001460B1F800C0BCF1FF0F34DD546800203D
:100E30002EE000F1080C4FF0010808FA0CF3B1F8AD
:100E400000C00CEA03069E4221D183004FF00F0C34
:100E50000CFA03F7BC4305FA03FC4CEA040491F8CE
:100E600003C0BCF1280F05D100F1080C08FA0CF8FA
:100E7000C2F8148091F803C0BCF1480F07D100F10B
:100E8000080C4FF0010808FA0CF8C2F81080401C5A
:100E90000828CED35460BDE8F0814FF6FF71018081
:100EA000022181700421C1707047024600209368BE
:100EB0000B4201D0012000E0002070470146886805
:100EC00080B2704702460020D3680B4201D0012057
:100ED00000E0002070470146C86880B27047016199
:100EE0007047416170470AB1016100E0416170479C
:100EF000C16070474FF480320A4382618161826130
:100F000082698269704702460020424B18684FF69A
:100F10008073184040EA021008433E4B1860704747
:100F20003D49C8617047F0B50A46002300240021FE
:100F3000002500F00046B6F1004F02D1354EF169B0
:100F400001E0344E7168C0F3034583B200F44016EB
:100F5000B6F5401F08D121F070612E4E766826F05C
:100F600070662C4F7E6012E000F48016B6F5801F8C
:100F700006D1032606FA05F4A14341F0706106E0AC
:100F8000460D360103FA06F6B14341F0706122B115
:100F9000460D360103FA06F6314300F00046B6F17D
:100FA000004F02D11B4EF16101E01A4E7160F0BD9D
:100FB00030B500228B071C0F0F2303FA04F2154BE8
:100FC00008338C1053F824309343124C08348D109E
:100FD00044F8253023468C1053F824308C07240F16
:100FE00000FA04F423430B4C08348D1044F82530E8
:100FF00030BD0A490860704700080140000C0140FC
:10100000001001400014014000180140001C014084
:10101000002001400000014000002042DC0020428E
:1010200010B50446F748844209D10121480500F073
:101030008AFB00214FF4001000F085FB08E001213D
:10104000880500F080FB00214FF4800000F07BFB5E
:1010500010BD2DE9F04385B004460D460026B1468B
:101060000427DFF8A483A6884FF6C07006406846C0
:1010700000F0D5FADDF80880E448B8FBF0F01FFA7C
:1010800080F946EA0906A68020884FF6FE710840DE
:1010900020800026DE49286888420CD82868400055
:1010A000B8FBF0F087B2042F00DA04273E4309F1C1
:1010B0000100208427E0E888A0F53F41FF3906D1F0
:1010C000286800EB4000B8FBF0F087B209E0286820
:1010D00000EBC00101EB0010B8FBF0F087B247F461
:1010E00080473805000D01D147F0010747F4004063
:1010F00006434FF4967009FB00F04FF47A7190FBB1
:10110000F1F0401C2084A683208840F0010020805C
:1011100026884FF6F5300640A888698908430643BB
:101120002680A88929890843208105B0BDE8F0837D
:1011300041F288310160002181804BF6FF71C1804E
:101140000021018141814FF480418181704721B1AB
:10115000028842F00102028004E002884FF6FE732A
:101160001A400280704721B1828842F40062828076
:1011700004E082884FF2FF731A408280704721B1E9
:10118000828842F48052828004E082884EF6FF73A7
:101190001A408280704721B1028842F48072028036
:1011A00004E002884FF6FF631A400280704721B1C5
:1011B000028842F40072028004E002884FF6FF5376
:1011C0001A400280704721B1028842F48062028096
:1011D00004E002884FF6FF331A40028070470A4647
:1011E000002181894FF60173194002F0FE03194373
:1011F0008181704721B1828942F00102828104E03D
:1012000082894FF6FE731A408281704721B10288AD
:1012100042F04002028004E002884FF6BF731A4099
:10122000028070471AB183880B43838002E0838871
:101230008B4383807047018270470146088AC0B2A1
:10124000704712B141F0010102E04FF6FE73194000
:101250000182704708B50246002000900092009875
:10126000084400900098008808BD21B1028842F42B
:101270000042028003E00288C2F30E02028070473F
:10128000B1F5006F04D1028842F40062028004E0EC
:1012900002884FF2FF731A4002807047B1F5005F79
:1012A00004D1028842F40052028004E002884DF624
:1012B000FF731A400280704721B1028842F48052C5
:1012C000028004E002884EF6FF731A4002807047E5
:1012D000B1F5006F04D1028842F40062028004E09C
:1012E00002884FF2FF731A400280704721B10288D2
:1012F00042F02002028004E002884FF6DF731A40B9
:10130000028070470146088B0012704721B10288A5
:1013100042F01002028004E002884FF6EF731A4098
:101320000280704721B9028842F08002028004E006
:1013300002884FF67F731A4002807047B1F5804FE4
:1013400005D0828B4BF6FF731A40828303E0828BB9
:1013500042F480428283704770B502460024002523
:1013600000230020958A138B1B0445EA030626F010
:101370007F4404EA01068E4201D1012000E00020F2
:1013800070BD10B501460020002300228B8A0A8B15
:10139000120443EA020424F07F4010BD0CB502465B
:1013A000002000230193009300920B0F019321F082
:1013B0007F41019B1BB1009B1433009303E0090C98
:1013C000009B18330093009B1B680B4201D0012047
:1013D00000E000200CBD002221F07F42D343838235
:1013E000704730B5024600200023948801F0E06584
:1013F00004EA154321F07F41948A0C420AD04BB194
:10140000012008E00054004000127A0040420F0022
:10141000A0860100002030BD002221F07F42D3438E
:1014200083827047DD48006840F00100DB490860B6
:1014300008464068DA490840D849486008460068CC
:10144000D8490840D54908600846006820F4802043
:1014500008600846406820F4FE0048604FF41F0012
:1014600088607047CD49096821F48031CB4A11600A
:101470001146096821F480211160B0F5803F03D046
:10148000B0F5802F0ED106E0C449096841F48031DF
:10149000C24A116007E0C149096841F4A021BF4A6E
:1014A000116000E000BF00BF704710B50146002288
:1014B000002300204A11012A02D1B84C236806E01B
:1014C000022A02D1B54C236A01E0B44C636A01F0F0
:1014D0001F02012494401C4201D0012000E00020A2
:1014E00010BD38B5002000900024002500BF312039
:1014F000FFF7DBFF05460098401C00900098B0F510
:10150000A06F01D0002DF2D03120FFF7CEFF08B13F
:10151000012400E00024204638BD014600209F4AF7
:10152000106820F0F80040EAC100106070479E4942
:101530000860704702460020984B586820F47C10E1
:1015400042EA01031843954B586070479649086674
:10155000704701460020914A506820F0030008437C
:10156000506070478D48406800F00C00704701469D
:1015700000208A4A506820F0F0000843506070470D
:1015800001460020854A506820F4E060084350601E
:10159000704701460020814A506820F4605040EABC
:1015A000C1005060704729B17C4A527A02437B4B9C
:1015B0005A7204E0794A527A8243784B5A727047E1
:1015C0007A490860704701460020744A506820F448
:1015D00040400843506070470021754A11706F4ABF
:1015E00082F82010012802D0042808D103E001214C
:1015F0006F4A117004E005216D4A117000E000BFD0
:1016000000BF70476B49086070476449096A01432D
:10161000624A11627047674944390860704730B5C3
:1016200000210022002400235C4D6D6805F00C01B0
:1016300021B1042905D0082923D105E05E4D0560BC
:1016400022E05D4D05601FE0544D6D6805F4701299
:10165000524D6D6805F48034022505EB92421CB9A9
:10166000564D554305600BE04C4D6D6815F4003F39
:1016700003D0524D5543056002E04F4D5543056080
:1016800002E04D4D056000BF00BF444D6D6805F0A0
:10169000F00109094A4D6B5C0568DD4045603F4D2E
:1016A0006D6805F4E061090A454D6B5C4568DD40F5
:1016B00085603A4D6D6805F46051C90A404D6B5C18
:1016C0004568DD40C560354D6D6805F44041890BC6
:1016D0003C4D6B5CC568B5FBF3F5056130BD29B1C8
:1016E0002E4A526902432D4B5A6104E02B4A52693B
:1016F00082432A4B5A61704729B1284A92690243B2
:10170000264B9A6104E0254A92698243234B9A61F1
:10171000704729B1214AD2690243204BDA6104E0C3
:101720001E4AD26982431D4BDA61704729B11B4AB8
:10173000D2680243194BDA6004E0184AD268824347
:10174000164BDA60704729B1144A12690243134BF1
:101750001A6104E0114A12698243104B1A61704702
:1017600014494039086070470F49C86470470B49F5
:10177000C87170470948406A40F080700749486264
:10178000704701460020054A92680A4201D00120B4
:1017900000E0002070470149887270470010024045
:1017A0000000FFF8FFFFF6FE00004242D800424270
:1017B000201002408004424200127A0000093D00DD
:1017C000300000204000002010B50446FE4884424E
:1017D00008D10121C014FFF7A9FF0021E014FFF791
:1017E000A5FFC4E0B4F1804F08D101210846FFF7FE
:1017F000AAFF00210120FFF7A6FFB8E0F3488442CA
:1018000008D101210220FFF79EFF00210220FFF7EF
:101810009AFFACE0EE48844208D101210420FFF792
:1018200092FF00210420FFF78EFFA0E0E9488442E8
:1018300008D101210820FFF786FF00210820FFF7CB
:1018400082FF94E0E448844208D101211020FFF790
:101850007AFF00211020FFF776FF88E0DF488442FE
:1018600008D101212020FFF76EFF00212020FFF783
:101870006AFF7CE0DA48844208D101214014FFF776
:1018800055FF00216014FFF751FF70E0D5488442F6
:1018900009D10121C804FFF749FF00214FF40020BE
:1018A000FFF744FF63E0D048844209D101210805D5
:1018B000FFF73CFF00214FF48010FFF737FF56E0A1
:1018C000CA48844209D101214805FFF72FFF0021B2
:1018D0004FF40010FFF72AFF49E0C548844208D1C1
:1018E00001214020FFF72FFF00214020FFF72BFFB1
:1018F0003DE0C048844208D101218020FFF723FF4A
:1019000000218020FFF71FFF31E0BB48844208D14F
:1019100001218015FFF717FF0021A015FFF713FF26
:1019200025E0B648844209D101210804FFF7FEFEF4
:1019300000214FF48030FFF7F9FE18E0B0488442F0
:1019400009D101214804FFF7F1FE00214FF40030D6
:10195000FFF7ECFE0BE0AB48844208D1012188047C
:10196000FFF7E4FE00214FF48020FFF7DFFE10BDFB
:1019700000220288944B98420ED0994B98420BD08B
:10198000B0F1804F08D0914B984205D0904B9842CF
:1019900002D0904B984204D14FF68F731A404B8877
:1019A0001A438D4B984207D08C4B984204D04FF687
:1019B000FF431A40CB881A4302808B8883850B88AB
:1019C0000385814B98420BD0854B984208D08B4BB6
:1019D000984205D08A4B984202D08A4B984201D156
:1019E0000B7A038601238382704770B5002400229E
:1019F0000023058C4FF6FE7635400584028C8388E3
:101A0000048B4FF68F752C40B51E2C400D882C434F
:101A1000751E2A400D892A434D882A436A4DA842E3
:101A20000BD06F4DA84208D0744DA84205D0744D1C
:101A3000A84202D0734DA84213D14FF6F7752A4041
:101A40004D892A434FF6FB752A408D882A434FF66D
:101A5000FF652B404FF6FF552B408D892B43CD89D9
:101A60002B4383800483CD888586028470BD70B546
:101A7000002400220023058C4FF6EF7635400584C4
:101A8000028C8388048B48F6FF752C404FF6FF4587
:101A90002C400D884FF6FF7606EA05252C434FF6BD
:101AA000DF752A400D8906EA05152A434D8806EAA6
:101AB00005152A43444DA84202D0494DA8421DD1E4
:101AC0004FF67F752A404D894FF6FF7606EA0515D9
:101AD0002A434FF6BF752A408D8806EA05152A432A
:101AE0004FF6FF352B404FF2FF752B408D8906EAEC
:101AF00085052B43CD8906EA85052B438380048326
:101B0000CD880587028470BD70B5002400220023B3
:101B1000058C4FF6FF6635400584028C8388848BE4
:101B20004FF68F752C404FF6FC752C400D882C43DA
:101B30004FF6FF552A400D894FF6FF7606EA052538
:101B40002A434D8806EA05252A431F4DA84202D0A4
:101B5000234DA8421DD14FF2FF752A404D894FF603
:101B6000FF7606EA05252A434FF6FF352A408D8881
:101B700006EA05252A434EF6FF752B404DF6FF7504
:101B80002B408D8906EA05152B43CD8906EA0515FC
:101B90002B4383808483CD888587028470BD70B594
:101BA000002200230024058C4EF6FF763540058484
:101BB000038C8488828B48F6FF752A404FF6FF45D8
:101BC0002A400D8820E00000002C01400004004065
:101BD00000080040000C00400010004000140040CD
:101BE00000340140004C01400050014000540140CD
:101BF00000180040001C0040002000400040014050
:101C000000440140004801404FF6FF7606EA0525F2
:101C10002A434DF6FF752B400D8906EA05352B4307
:101C20004D8806EA05352B43FA4DA84202D0FA4DFD
:101C3000A84208D14BF6FF752C408D894FF6FF76F0
:101C400006EA85152C4384808283CD88A0F8405015
:101C5000038470BD828B4FF2FF331A408283828BE4
:101C60004FF6FF7303EA01231A4382837047F0B5EE
:101C70000C461546002200210026078C4EF6FF7CFC
:101C800007EA0C070784828B018C4FF6FF7707EA7F
:101C9000043640F6FF473A404FF6FF7707EA05273C
:101CA0003A434FF6FF7707EA03373A43D94FB84232
:101CB0000ED0D94FB8420BD0B0F1804F08D0D74FDB
:101CC000B84205D0D64FB84202D0D64FB84206D15E
:101CD0004DF6FF77394046F48057394305E047F623
:101CE000FF57394044F48057394382830184F0BD63
:101CF000828B4FF6F3731A408283828B0A4382836E
:101D00007047F0B50C461546002200210026078CCE
:101D10004FF6FF6C07EA0C070784828B018C4FF6A5
:101D2000FF7707EA04264FF60C773A404FF6FF7725
:101D300007EA03172F433A43B64FB8420ED0B64FC7
:101D4000B8420BD0B0F1804F08D0B44FB84205D0A4
:101D5000B34FB84202D0B34FB84206D14FF6FF5747
:101D6000394046F48077394305E04FF2FF57394058
:101D700044F48077394382830184F0BD028B4FF2B3
:101D8000FF331A400283028B4FF6FF7303EA0123ED
:101D90001A4302837047F0B50C4615460022002115
:101DA0000026078C4FF6EF7C07EA0C070784028BAE
:101DB000018C4FF6FF7707EA041640F6FF473A40DA
:101DC0004FF6FF7707EA03373A434FF6FF7707EA04
:101DD00005273A438F4FB8420ED08F4FB8420BD0F1
:101DE000B0F1804F08D08D4FB84205D08C4FB8422B
:101DF00002D08C4FB84206D14FF6DF77394046F01B
:101E00001007394305E04FF65F77394044F010077B
:101E1000394302830184F0BD028B4FF6F3731A40FD
:101E20000283028B0A4302837047F0B50C461546C5
:101E300000220021068C4FF6FE773E400684028B7E
:101E4000018C4FF60C7632407E1C06EA03162E43B8
:101E50003243704EB0420ED06F4EB0420BD0B0F154
:101E6000804F08D06D4EB04205D06D4EB04202D0CA
:101E70006C4EB04206D14FF6FD76314044F001067B
:101E8000314305E04FF6F576314044F00106314329
:101E900002830184F0BD70B505460C465D4885425D
:101EA0000ED05D4885420BD0B5F1804F08D05B481D
:101EB000854205D05A48854202D05A48854200D111
:101EC00000E000BF208850B92389A2886188284695
:101ED000FFF7ABFFE1882846FFF79EFF25E020884B
:101EE00004280AD12389A28861882846FFF753FF76
:101EF000E1882846FFF742FF17E0208808280AD12A
:101F00002389A28861882846FFF7FBFEE1882846DE
:101F1000FFF7EEFE09E02389A28861882846FFF7D3
:101F2000A6FEE1882846FFF795FE70BD2DE9F04139
:101F300005460C4600260127608808B9022600E005
:101F40000026A088012801D1022700E0012720886F
:101F5000A0B92389A28861882846FFF766FFE18837
:101F60002846FFF759FF23893A4631462846FFF7AE
:101F700012FFE1882846FFF701FF13E02389A288BA
:101F800061882846FFF707FFE1882846FFF7F6FE3D
:101F900023893A4631462846FFF747FFE18828461D
:101FA000FFF73AFFBDE8F0810A884B881A438B8817
:101FB0001A43CB881A430B891A434B891A438B89DE
:101FC0001A43A0F8442070474FF6FF71818000212A
:101FD0000180C180418001727047002101804180F1
:101FE0008180C180018141818181C181704700214F
:101FF00001804180012181800021C18001817047E1
:102000000021018041808180C180018141818181E5
:1020100070470000002C01400034014000040040E3
:1020200000080040000C004021B1028842F001028B
:10203000028004E002884FF6FE731A400280704767
:1020400031B1B0F8442042F40042A0F8442005E049
:10205000B0F84420C2F30E02A0F8442070471AB131
:1020600083890B43838102E083898B43838170479B
:102070008182704741EA0203A0F8483070471AB1E4
:1020800083890B43838102E083898B43838170477B
:1020900001894FF6F8721140018170470A4600210C
:1020A00001894FF68F73194011430181704730B594
:1020B00004460D4629462046FFF7F0FF208940F0F0
:1020C0000700208130BD2DE9F04104460D4616463B
:1020D0001F46602D06D13B46012231462046FFF7C0
:1020E0005AFE05E03B46012231462046FFF79DFEA1
:1020F00029462046FFF7D2FF208940F007002081C3
:10210000BDE8F08130B50C4600210189C9B24FF617
:10211000FF7505EA0325154325432943018130BD99
:102120002DE9F04105460E461746984600244346E1
:102130003A4631462846FFF7E5FF2C894FF6F870FE
:10214000044044F007044FF68F70044044F07004DC
:102150002C81BDE8F081F0B504460D4616461F46B9
:102160003B46324629462046FFF7CCFF208940F403
:1021700080402081F0BD0185828270470A4600219F
:1021800001884FF68F731940114301807047F0B5F5
:102190000C4615461E460021002200230189028BB1
:1021A000038C4FF6F877394021434FF6FC473A400D
:1021B00040F201173A434FF6DD773B404FF6FF7789
:1021C00007EA06172F433B43018102830384F0BDD6
:1021D0000A460021018B4FF68F731940114301838A
:1021E00070470A460021018B48F6FF7319404FF6ED
:1021F000FF7303EA02231943018370470A46002153
:10220000818B4FF68F7319401143818370470A46C3
:102210000021818B48F6FF7319404FF6FF7303EAE4
:10222000022319438183704721B1028842F0800262
:10223000028004E002884FF67F731A4002807047E4
:1022400021B1828842F00402828004E082884FF645
:10225000FB731A408280704721B1828842F00802E5
:10226000828004E082884FF6F7731A4082807047BC
:1022700021B1828842F00102828004E082884FF618
:10228000FE731A40828070470A460021018B4FF688
:10229000F77319401143018370470A460021018BEF
:1022A0004FF2FF7319404FF6FF7303EA02231943FD
:1022B000018370470A460021818B4FF6F77319405E
:1022C0001143818370470A460021818B4FF2FF73CF
:1022D00019404FF6FF7303EA0223194381837047C5
:1022E0000A460021018B4FF6FB731940114301830D
:1022F00070470A460021018B4FF6FF3319404FF615
:10230000FF7303EA02231943018370470A46002141
:10231000818B4FF6FB7319401143818370470A4646
:102320000021818B4FF6FF3319404FF6FF7303EA0C
:1023300002231943818370470A460021018B4FF61F
:102340007F7319401143018370470A460021018BB6
:10235000C1F30E014FF6FF7303EA02231943018311
:1023600070470A460021818B4FF67F731940114355
:10237000818370470A460021818BC1F30E014FF61D
:10238000FF7303EA02231943818370470A46002141
:10239000018C4FF6FD7319401143018470470A46C2
:1023A0000021018C4FF6F7731940114301847047E7
:1023B0000A460021018C4FF6DF7319404FF6FF7378
:1023C00003EA02131943018470470A460021018C75
:1023D0004FF67F7319404FF6FF7303EA0213194358
:1023E000018470470A460021018C4FF6FF531940C3
:1023F0004FF6FF7303EA02231943018470470A462C
:102400000021018C4FF2FF7319404FF6FF7303EA6E
:1024100002231943018470470A460021018C4DF6BE
:10242000FF7319404FF6FF7303EA02331943018427
:10243000704730B5002301248C40A3B2048C9C4328
:102440000484048C02FA01F5ADB22C43048430BD3F
:1024500030B5002304248C40A3B2048C9C43048434
:10246000048C02FA01F5ADB22C43048430BD70B582
:102470000346002000241846183001258D40ACB2D8
:102480001D8CA5431D8409B1082909D100EB610009
:10249000056825F0700505600568154305600EE0C8
:1024A0000D1FC5F34E052844056825F4E045056079
:1024B00005684FF6FF7606EA02263543056070BDD3
:1024C00021B1028842F00202028004E002884FF645
:1024D000FD731A400280704721B1028842F0040265
:1024E000028004E002884FF6FB731A4002807047B6
:1024F00021B1828842F08002828004E082884FF617
:102500007F731A408280704702884FF6F7731A4033
:10251000028002880A430280704782884FF68F73D8
:102520001A40828082880A438280704702894FF66F
:10253000F8731A40028102890A43028170470289B6
:102540004FF67F731A40028102890A430281704765
:102550008184704781857047818670470187704705
:1025600081877047A0F84010704702884FF6FF43FC
:102570001A40028002880A43028070470146888E12
:1025800070470146088F70470146888F70470146A3
:10259000B1F8400070470146888C70470146088DAD
:1025A000704702460020138A0B4201D0012000E050
:1025B00000207047CA430282704730B502460020AF
:1025C00000230024158A05EA0103958905EA010420
:1025D00013B10CB1012000E0002030BDCA430282DB
:1025E0007047000010B50446FB48844209D1012120
:1025F0008803FFF79BF800214FF48040FFF796F81F
:1026000032E0F648844209D101214804FFF79BF8E3
:1026100000214FF40030FFF796F825E0F04884429F
:1026200009D101218804FFF78EF800214FF48020A2
:10263000FFF789F818E0EB48844209D10121C8046A
:10264000FFF781F800214FF40020FFF77CF80BE042
:10265000E548844208D101210805FFF774F80021FC
:102660004FF48010FFF76FF810BD2DE9F04786B0EA
:1026700005460E460024A24600BFA1460027B089A9
:1026800000B100BF2F462C8A4CF6FF700440F08842
:1026900004432C82AC894EF6F3100440B088318993
:1026A0000843718908430443AC81AC8A4FF6FF406C
:1026B0000440B0890443AC8201A8FEF7B0FFC648CD
:1026C000874202D1DDF810A001E0DDF80CA0A88956
:1026D00010F4004F08D00AEBCA0000EB0A10316872
:1026E0004900B0FBF1F807E00AEBCA0000EB0A1062
:1026F00031688900B0FBF1F86420B8FBF0F0040108
:102700002009642101FB1089A88910F4004F08D02A
:10271000322000EBC900B0FBF1F000F007000443E9
:1027200008E0322000EB09106421B0FBF1F000F06A
:102730000F0004432C8106B0BDE8F0874FF416511A
:10274000016000218180C18001810C214181002133
:102750008181704710B502460020108A4FF2FF03B6
:1027600018400B884C8823438C882343CC88234310
:102770001843108210BD0021018041808180C180FA
:10278000704721B1828942F40052828104E082893B
:102790004DF6FF731A4082817047F0B5034600245E
:1027A000002600250020A1F510676A3F00D100BF78
:1027B0001846C1F3421401F01F06012707FA06F577
:1027C000012C01D10C3004E0022C01D1103000E0CA
:1027D00014301AB107682F43076002E00768AF435F
:1027E0000760F0BD1AB1838A0B43838202E0838ABB
:1027F0008B4383827047028A4FF6F0731A4002823D
:10280000028A0A430282704782894FF2FF731A409C
:10281000828182890A438281704721B1828942F094
:102820000202828104E082894FF6FD731A408281A0
:102830007047028A4FF6DF731A400282028A0A4307
:102840000282704721B1028A42F48042028204E08F
:10285000028A4BF6FF731A4002827047C1F30802E6
:102860008280704701468888C0F3080070478189DC
:1028700041F0010181817047028BD2B20283028B49
:1028800042EA012202837047028B02F47F420283F4
:10289000028B0A430283704721B1828A42F02002F0
:1028A000828204E0828A4FF6DF731A408282704788
:1028B00021B1828A42F01002828204E0828A4FF6BD
:1028C000EF731A408282704721B1828A42F0080277
:1028D000828204E0828A4FF6F7731A408282704740
:1028E00021B1828942F40042828103E08289C2F3ED
:1028F0000E028281704721B1828A42F40062828294
:1029000004E0828A4FF2FF731A4082827047828A03
:102910004FF6FB731A408282828A0A438282704792
:1029200021B1828A42F00202828204E0828A4FF65A
:10293000FD731A408282704702460020B1F5007F85
:1029400000D100BF13880B4201D0012000E000201D
:10295000704701F40072B2F5007F00D100BFCA4396
:102960000280704770B50246002400230025002035
:10297000A1F510666A3E00D100BFC1F3421501F017
:102980001F03012606FA03F3012D02D19689334075
:1029900006E0022D02D1168A334001E0968A3340C8
:1029A0000C12012606FA04F41688344013B10CB157
:1029B000012000E0002070BD10B500220023A1F529
:1029C00010646A3C00D100BF0A1201249440A3B2F3
:1029D000DC43048010BD000000380140004400408A
:1029E00000480040004C0040005000400FB41CB5AF
:1029F000074B06AA7B4469460090059800F0DFF873
:102A00000020694600F0EEF81CBC5DF814FB0000E5
:102A1000ED0100002DE9F0410E4604460020206241
:102A20002046E168884730B3252805D0D4E9012144
:102A30009047206A401CF2E7E1682046002788475B
:102A4000050018D0A5F14100192802D820354FF40F
:102A500000673246294620462760FDF781FB40B1DA
:102A6000012804D0F61D26F007060836D8E7361DE3
:102A7000D6E72846DAE7206ABDE8F0812DE9F04183
:102A80000646002410687529314616A511D0AFF30B
:102A90000080002803DAC0F1000013A507E03168C8
:102AA0008A0701D511A502E0490704D510A5012424
:102AB00001E0AFF3008000210A2306F1240707E0BC
:102AC000B0FBF3F203FB1200303078541046491C7F
:102AD0000028F5D123462A463046BDE8F04100F0F3
:102AE0000CB80000000000002D0000002B000000CA
:102AF000200000007047704770472DE9F0470D46F1
:102B000099469246044600F124080168880604D5D7
:102B1000E06921F01001216000E00120A84202DDFF
:102B2000A0EB050700E00027A16907EB050202EB17
:102B30000900A1EB0000A0612078C00602D4204665
:102B4000AFF30080002608E0D4E901211AF806005E
:102B50009047206A401C761C20624E45F4DB2078AA
:102B6000C0060AD52046AFF3008006E0D4E9012173
:102B700030209047206A401C2062381EA7F10107D0
:102B8000F4DC07E0D4E9012118F805009047206A39
:102B9000401C2062281EA5F10105F3DC2046AFF39E
:102BA00000802078000602D50220BDE8F0870120D1
:102BB000FBE7000001694A1C02610878704700B514
:102BC0008FB0CDE901310021059105497944CDE966
:102BD000031011466846FFF71DFF0FB000BD00004F
:102BE000E5FFFFFF0A6802F8010B0A6070477546AF
:102BF00000F028F8AE4605006946534620F007006D
:102C0000854618B020B5FDF7D1FABDE820404FF059
:102C100000064FF000074FF000084FF0000B21F0C6
:102C20000701AC46ACE8C009ACE8C009ACE8C00993
:102C3000ACE8C0098D4670470446AFF300802046DB
:102C4000FDF7A0FA00487047D00000200149182085
:102C5000ABBEFEE726000200704700002DE9F04DF4
:102C600007460E4600F0F0F904460D463A46334654
:102C700000F044FA0746DFF870A0DFF870B01C4B94
:102C8000884616F0004F4FF0000238460AD000F098
:102C900015F90AD900225B463846414600F09EF9F4
:102CA0001BD212E000F00AF908D200225346204657
:102CB000294600F02FFA04460D460EE000225B463E
:102CC0003846414600F08AF907D80022534620468C
:102CD000294600F00FF804460D463146204665F3BC
:102CE0001E01BDE8F08D00000000F03F0000E03F55
:102CF0000000E0BF10B591EA030F48BF83F0004326
:102D000000F11082841A71EB030C05D2121943EB07
:102D10000C03001B61EB0C01DFF824E14FEA1154B6
:102D2000A4EB135C1EEA430F18BF9EEA445F73D006
:102D300023EA0E03DCF1200E21EA045143F4801350
:102D400032D322FA0CFE10EB0E0023FA0CFE41EBFC
:102D50000E01CCF1200E03FA0EFE10EB0E0051F125
:102D60000001B1F5801FCCF1200E32D201EB0451ED
:102D700012FA0EF2BDE8104058BF7047401C38BF31
:102D80005FEA420218BF7047002814BF20F001001C
:102D900041F100014FEA410313F5001F38BF7047AE
:102DA000A1F1C04100F014B9012A43EB0302ACF1D8
:102DB000200CDCF11F0E32BF4FF0000E23FA0CF393
:102DC00010EB030041EB0451B4EB115FD0D0A1EB49
:102DD000045101F5801149085FEA300001EB04510C
:102DE0000ED350F1000038BF12FA0EFE08D1BDE834
:102DF0001040C9E7401C38BF5FEA4202CAD1C3E7AE
:102E0000BDE810404FEA410313F5001F38BF70477B
:102E1000A1F1C04100F0DCB89EEA445F08D011EA9D
:102E20005E0FBDE8104004BF01F000410020704774
:102E3000BDE8104070B500F07DF800BF64FBBE3EF9
:102E40000000E0FF491058BFC1F140415B1058BF7E
:102E5000C3F140438B42EFF3008070474FEA4103D8
:102E60004FEA5353A3F58063D3F11E03C8BFD3F1D8
:102E7000210C0CDD4FF0004242EAC12242EA5052DE
:102E800032FA03FC8CEAE17CACEBE1707047102B6A
:102E9000C4BF0020704703F5787CBCF1FF3F04D02D
:102EA0006FF0004282EA2100704770B500F042F8EE
:102EB0004992248000207047F2E7000051EA030C99
:102EC00017D41CF5801F58BFBCF5801F00F1068089
:102ED000994218BF704708BF9042704707D711F555
:102EE000801F58BF13F5801F19D49942704789423B
:102EF00070471CF5801F08D5BCF5801FF7D58B42A5
:102F000018BF704708BF824270474FF4001C1CEB8B
:102F1000410F38BF1CEB430F01D28B42704770B595
:102F200000F008F8922449004FF000514FF0805310
:102F3000FFF788BF0EF1020E2EF0030E5EF8046B51
:102F4000364205D4012A43EB030515F5001F12D8BC
:102F5000012841EB010C1CF5001F0CD80ED14FEAE3
:102F6000D17C15F5001F0CEB4C0C0CF1020C08BFCA
:102F70004CEBD37C04E04FF0080C01E04FEAD37C2B
:102F80000CEB4C0526FA05F606F00706B6F1040C24
:102F900006D20EEB860CBDE870404CF0010C604789
:102FA000DFE80CF0090B02024FF000414FF0000087
:102FB000A1F5002170BD19461046012851EB01040E
:102FC00018BFD4F5001484BF002001F0004170BD8B
:102FD0000808A0F500114FEA3101704753EA010CCF
:102FE00017D41CF5801F58BFBCF5801F00F1068068
:102FF0008B4218BF704708BF8242704707D713F54E
:10300000801F58BF11F5801F19D48B4270479B4217
:1030100070471CF5801F08D5BCF5801FF7D5994275
:1030200018BF704708BF904270474FF4001C1CEB5C
:10303000430F38BF1CEB410F01D2994270470FB4C8
:103040000CBC03BCFFF76BBF5FEA410C5FEA5C5C42
:10305000ACF580635B1C39D4D3F1340240F3458076
:10306000B2F1200314DA4FF0010C0CFA02FCACF1BF
:1030700001030340B3EB5C0220EA030008BF10EA3F
:103080000C0F98BF704710EB0C0041F10001704726
:103090000AD0C3F1200201FA02FC012821FA03F14F
:1030A00001FA03F14CF100004FF0010C0CFA03FCA3
:1030B000ACF10103B0F1004F21EA030108BF11EAAE
:1030C0000C0F4FF0000088BF61447047B3F1FF3F21
:1030D00028BF50EAC12C01F000414FF0000084BF2E
:1030E00041F07C5141F470017047B3F5806FB8BF77
:1030F000704770B5FFF71EFF40DBB6BE91EA030FC5
:1031000010B581F000413FF5FDAD83F0004300F0C4
:1031100009B8000010B591EA030F48BF83F00043DF
:103120003FF5F0AD841A71EB030C07D212198CF045
:10313000004C43EB0C03001B61EB0C01DFF8A4E136
:103140004FEA1154A4EB135C1EEA430F18BF9EEA2A
:10315000445F00F0B08023EA6E03524221EA04513A
:10316000C3EB6E0338BF5B1EDCF1200E25D322FAC1
:103170000CFE10EB0E0043FA0CFE41EB0E01CCF1FD
:10318000200E03FA0EFE10EB0E0051F10001CCF1FF
:10319000200E29D412FA0EF201EB0451BDE81040C2
:1031A00058BF7047401C1CBFB2F1004F7047002849
:1031B0000CBF491C20F00100704712EB020E43EBDC
:1031C000030218BF4FF0010E4EEA4202ACF1200C90
:1031D000DCF11E0E54D943FA0CFE10EB0E0051F137
:1031E000FF31CCF11E0ED5D50EF1010E12FA0EFEF6
:1031F000404141EB010101EB445C5FEA5C5C10D9AA
:1032000010EBDE7001EB045138BFBEF1004FBDE89A
:10321000104018BF704700280CBF491C20F0010067
:10322000704730D24FEAD42C11F5001124F4006419
:103230001BD0B1FA81F20B3AA41AA41ED2F12003DA
:10324000914030FA03F31943904001EBCC71002C0C
:1032500001EB0451BDE81040A8BF704701F1C04127
:103260004FF0000001F000417047B0FA80F310FA0F
:1032700003F100D110BDE41A173C4805C90AE4E780
:1032800001EB045110BD491001EB0451BDE81040A1
:103290004FEA300002E04FF0000170474A0008BFDB
:1032A0000042F8D0B2F5001F28BF704701F000417E
:1032B0004FF0000070479EEA445F07D011EA5E0FAE
:1032C000BDE8104004BF002100207047BDE8104059
:1032D00070B5FFF72FFE00BF40DFF63E83F00041E0
:1032E000104670470000E0FF43004FEAD30C4FEA5E
:1032F0003C0C43401FBF40070CF1605113F0FE4FE0
:1033000070471CF0006F03D100200CF000417047A3
:103310000CF0004343EA507010B540EACC0000F0D6
:1033200027F800BF000000924FEA0001FFF750BEEF
:103330004FF000414FF00000A1F500217047000060
:1033400010F0004148BF4042B0FA80F310FA03F297
:10335000C3F19D030BD051EAC35101EB1220530678
:1033600038BF704700F1010008BF20F0010070472E
:103370000EF1020E2EF0030E5EF8044B244204D42C
:103380004FEA4102B2F17F4F11D84FEA4003B3F147
:103390007F4F0CD80ED14FEAD07CB2F17F4F0CEBAF
:1033A0004C0C0CF1020C08BF4CEBD17C04E04FF04C
:1033B000080C01E04FEAD17C0CEB4C0324FA03F437
:1033C00004F00704B4F1040C06D20EEB840CBDE843
:1033D00010404CF0010C6047DFE80CF007080202D7
:1033E0004FF00040A0F5800010BD0846420018BF15
:1033F000D2F1807288BF00F0004010BD1C3400087C
:10340000000000204400000028010008603400088B
:1034100044000020EC060000440100080000000009
:1034200000A24A04000000000000000001020304A2
:10343000060708090000000000000000000000006E
:10344000000000000000000000000000000000007C
:103450000102030401020304060708090204060826
:04000005080001915D
:00000001FF
