:020000040800F2
:10000000D006002089010008C9010008CB010008C2
:10001000CF010008D3010008D7010008000000004C
:10002000000000000000000000000000DB010008EC
:10003000DD01000800000000DF010008E101000808
:10004000A3010008A3010008A3010008A301000800
:10005000A3010008A3010008A3010008A3010008F0
:10006000A3010008A3010008A3010008A3010008E0
:10007000A3010008A3010008A3010008A3010008D0
:10008000A3010008A3010008A3010008A3010008C0
:10009000A3010008A3010008A3010008A3010008B0
:1000A000A3010008A3010008A3010008A3010008A0
:1000B000E3010008A3010008A3010008A301000850
:1000C000A3010008A3010008A3010008A301000880
:1000D000A3010008A3010008A3010008A301000870
:1000E000A3010008A3010008A301000800F002F822
:1000F00000F03AF80AA090E8000C82448344AAF188
:100100000107DA4501D100F02FF8AFF2090EBAE885
:100110000F0013F0010F18BFFB1A43F0010318473B
:100120000839000028390000103A24BF78C878C187
:10013000FAD8520724BF30C830C144BF04680C60ED
:10014000704700000023002400250026103A28BF35
:1001500078C1FBD8520728BF30C148BF0B60704739
:100160001FB51FBD10B510BD02F0FCF81146FFF71A
:10017000F7FF00F004FA02F01AF903B4FFF7F2FFF8
:1001800003BC02F01BF900000948804709480047FA
:10019000FEE7FEE7FEE7FEE7FEE7FEE7FEE7FEE737
:1001A000FEE7FEE704480549054A064B7047000094
:1001B00005030008ED000008D0000020D006002054
:1001C000D0020020D0020020704700BFFEE700BF31
:1001D000FEE700BFFEE700BFFEE7704770477047CD
:1001E00070472DE9F0410121880702F090F80128BD
:1001F00011D10A48006803F09FF90646084A094BE6
:1002000002F098FC044602F063FC044908600121F6
:10021000880702F08DF8BDE8F08100002000002082
:100220007B14AE47E17A843F0CB50020019000902A
:100230006B48006840F480306949086000BF684836
:10024000006800F4003000900198401C0190009874
:1002500018B90198B0F5A06FF1D16148006810F4A9
:10026000003F02D00120009001E0002000900098A3
:10027000012842D15B48006840F0100059490860ED
:100280000846006820F0030008600846006840F057
:10029000020008605248406851494860084640687A
:1002A00048600846406840F48060486008464068FE
:1002B00020F47C1048600846406840F4E81048602C
:1002C0000846006840F08070086000BF444800683D
:1002D00010F0007FFAD04248406820F00300404907
:1002E00048600846406840F00200486000BF3C4853
:1002F000406800F00C000828F9D10CBD10B5FFF7DC
:1003000093FF10BD10B53648006840F00100344935
:10031000086008464068344908403149486008464A
:100320000068324908402E4908600846006820F4F9
:10033000802008600846406820F4FE0048604FF4C2
:100340001F008860FFF7DAFF4FF00060284908605F
:1003500010BD10B5002100200022214B5B6803F086
:100360000C0121B1042906D0082928D107E0214B2E
:10037000214C236027E01F4B1F4C236023E0184BC8
:100380005B6803F47010164B5B6803F48032022341
:1003900003EB904022B9194B4343174C23600DE007
:1003A0000F4B5B6813F4003F04D0144B4343124CD3
:1003B000236003E00F4B43430F4C236003E00D4BDE
:1003C0000D4C236000BF00BF054B5B68C3F30313F4
:1003D0000B4CE15C084B1B68CB40074C236010BD05
:1003E00000100240002002400000FFF8FFFFF6FE70
:1003F00008ED00E000127A000000002000093D0036
:100400000400002010B50020FE490860012048715A
:100410004FF4602088600020C86001200874FA480A
:1004200000F0FDFA01231A460021F74800F08FFB87
:100430000121F54800F01FFBF34800F03EFB00BF30
:10044000F14800F03FFB0028FAD1EF4800F044FBF0
:1004500000BFED4800F045FB0028FAD10121EA4831
:1004600000F049FB10BD10B51C20E84908700020C1
:10047000487088700120C870084600F040FA10BD2E
:1004800010B548F69F40E24988801320088000207C
:10049000C8804880DF4801F015F96020DE490880F7
:1004A00000200881012048800020C880D94801F040
:1004B00046F9D949D74801F084F9D749D54801F020
:1004C000CDF9D549D34801F014FA01221146D1489B
:1004D00001F06FFC0121CF4801F050FC10BD10B5B8
:1004E00048F69F40CA498880132008800020C880B1
:1004F00048804FF0804001F0E5F80020C6490880B0
:1005000008810120488001221146800701F051FC3A
:100510000121880701F032FC10BD10B50120BF4950
:1005200008800020C870BE4800F0DAFC4020BB49BB
:1005300008801820C87002208870B94800F0D0FCEC
:100540008020B64908801820C87002208870B448FE
:1005500000F0C6FC0120B14908801820C8700220B4
:100560008870B04800F0BCFC0220AC49088018201C
:10057000C87002208870AB4800F0B2FC10BD8CB08F
:100580004FF4004000F0C9FE0121084600F06BFF67
:100590000121022000F067FF012140F20D2000F050
:1005A00055FFFFF7BAFFFFF79AFFFFF769FFFFF765
:1005B0005AFFFFF727FF90E1934800F02FFB044616
:1005C00003F0C4F89849086098499748006802F019
:1005D000DFFF044603F09EF895490860084600686E
:1005E00003F0B4F88146934902F0D2FF044602F0CA
:1005F000A3FF0746904A914B02F09CFA054602F091
:1006000067FA8F4908600846006802F095FF0446C3
:1006100000228C4B02F064FE0CD88948006802F07E
:100620008BFF0446844A884B02F020FD02D887489D
:10063000834908608248006802F07EFF0446844ACD
:10064000844B02F04DFE0DD87D48006802F074FF27
:100650000446794A804B02F009FD03D84FF07E50E2
:10066000774908607648006802F066FF0446224633
:100670000B467A487A4902F019FBCDE90201794824
:10068000006802F059FF04460D466D48006802F00C
:1006900053FF8046714A744B02F024FD0646224601
:1006A0002B4602F01FFDCDE90001DDE9022302F037
:1006B00041FACDE9040102F0B3F900226B4BCDE918
:1006C000060102F037FA00224FF08043CDE908011D
:1006D00002F0ECFA82460022654B02F003FDCDE900
:1006E0000A0102F06BFC4B49343108805448006821
:1006F00002F022FF064632460B465E485E4902F093
:10070000D5FACDE902015748006802F015FF82468C
:100710008B464B48006802F00FFF80464F4A524B11
:1007200002F0E0FC064652465B4602F0DBFCCDE9F7
:100730000001DDE9022302F0FDF9CDE9040102F038
:100740006FF904460022494B02F0F4F900224FF001
:100750008043CDE9060102F0A9FA0022444BCDE91D
:10076000080102F0BFFCCDE90A0102F027FC29498B
:10077000383108803248006802F0DEFE0646324614
:100780000B463C483D4902F091FACDE9020135485B
:10079000006802F0D1FE06460F462948006802F0C4
:1007A000CBFE82462D4A304B02F09CFC80463246FE
:1007B0003B4602F097FCCDE90001DDE9022302F09F
:1007C000B9F9044602F02CF90022284BCDE90401C6
:1007D00002F0B0F900224FF08043CDE9060102F0AB
:1007E00065FA0022224BCDE9080102F07BFCCDE93D
:1007F0000A0102F0E3FB07493C3108801948006810
:100800003EE000005C0000200024014028000020A1
:1008100040000020000400404A0000202400002086
:1008200000080140000C014018000020000048436F
:100830001C000020000020419A9999999999D93F6C
:10084000140000200000E03F9999E93F3333333F23
:10085000CDCCCCCCCCCCEC3F9999F13F1F85EB5162
:10086000B81EF93F20000020B81E19400000F03FDC
:100870000094E140BF58F28B25BFF03F25BFE03F19
:1008800002F05AFECDE904011448006802F054FE5B
:100890008046134A134B02F025FC0646DDE904238B
:1008A00002F020FCCDE9060102F0BAF882460022EF
:1008B0000D4B02F03FF900224FF08043CDE90801D3
:1008C00002F0F4F90022094BCDE90A0102F00AFC1A
:1008D000044602F073FB064908806DE61400002010
:1008E0001F85EB51B81E19400000F03F0094E14015
:1008F0004004004031490143314A1160704770B5EE
:10090000002100230F22C4780CB32D4C246804F47A
:10091000E064C4F5E064210AC1F10403CA404478EC
:1009200004FA03F18478144021430901254C067828
:10093000A155047804F01F050124AC4005786D1121
:100940004FF0E02606EB8505C5F8004109E0047884
:1009500004F01F050124AC401B4D0678761145F8C4
:10096000264070BD194A0A400243154B1B1F1A60EE
:10097000704739B1124A121D12680243104B1B1DF9
:100980001A6006E00E4A121D126882430C4B1B1DB2
:100990001A607047042808D14FF0E021096941F03E
:1009A00004014FF0E022116107E04FF0E0210969F6
:1009B00021F004014FF0E022116170470000FA05B8
:1009C0000CED00E000E400E080E100E080FFFF1FAC
:1009D00010B50446FA48844208D10121401500F0C0
:1009E0004FFD0021601500F04BFD17E0F5488442F3
:1009F00008D10121001500F043FD0021201500F071
:100A00003FFD0BE0F048844208D10121C80300F00B
:100A100037FD00214FF4004000F032FD10BD30B52D
:100A20000246002000235068E84C20400D790C68F5
:100A300044EA0524204350609068E54C2040D1E909
:100A400002542C434D7944EA450420439060D06A17
:100A500020F470000C7C641EE4B2234340EA03508F
:100A6000D06230BD00210160017141718160C160BF
:100A700001210174704721B1826842F00102826055
:100A800003E0826822F001028260704721B182682F
:100A900042F48072826003E0826822F48072826095
:100AA000704710B50023CBB21AB144681C434460B0
:100AB00002E044689C43446010BD816841F0080135
:100AC00081607047014600208A6812F0080F01D04B
:100AD000012000E000207047816841F0040181603E
:100AE0007047014600208A6812F0040F01D00120EF
:100AF00000E00020704721B1826842F4A0028260C9
:100B000003E0826822F4A002826070470146002060
:100B10008A6812F4800F01D0012000E000207047A5
:100B200010B50A4600210023416821F46041531E9C
:100B300041EA4331416010BD21B1426842F4006294
:100B4000426003E0426822F4006242607047F0B500
:100B500004460D4600200021092D11DDE068A5F1B5
:100B60000A0606EB4607072606FA07F18843A5F1B1
:100B70000A0606EB460603FA06F10843E0600CE0BD
:100B8000206905EB4507072606FA07F1884305EBC0
:100B9000450603FA06F108432061072A0FDA606B65
:100BA000561E06EB86071F2606FA07F18843561ED7
:100BB00006EB860605FA06F10843606322E00D2A7B
:100BC0000FDA206BD61F06EB86071F2606FA07F101
:100BD0008843D61F06EB860605FA06F10843206314
:100BE00010E0E06AA2F10D0606EB86071F2606FA62
:100BF00007F18843A2F10D0606EB860605FA06F119
:100C00000843E062F0BD21B1826842F48012826044
:100C100003E0826822F48012826070470146C86C4B
:100C200080B2704766484C300068704721B1426816
:100C300042F48062426003E0426822F480624260D3
:100C4000704721B1426842F48052426003E042683A
:100C500022F48052426070470A460021816821F4E4
:100C6000E04111438160704721B1826842F4004243
:100C7000826003E0826822F400428260704721B102
:100C8000826842F40212826003E0826822F4021257
:100C900082607047014600208A6812F4001F01D06C
:100CA000012000E000207047F0B504461546002002
:100CB00000220026092911DDE068A1F10A0707EBEF
:100CC000470C072707FA0CF29043A1F10A0707EB3C
:100CD000470703FA07F21043E0600CE0206901EBDC
:100CE000410C072707FA0CF2904301EB410703FA86
:100CF00007F210432061A06BC0F30156EF1C06F110
:100D0000010CA7EB0C0707EB870C1F2707FA0CF267
:100D10009043EF1C06F1010CA7EB0C0707EB8707CC
:100D200001FA07F21043A063F0BD10B50A46002196
:100D30000023816B21F44011531E41EA035181636A
:100D400010BD08B5002300930090009B0B44009356
:100D5000009B1A6008BD08B5024600200090009272
:100D600001F12800009B184400900098006880B2B0
:100D700008BD0A4600214168164B194011434160E5
:100D800070474162826270470A460021416821F043
:100D90001F0111434160704740B10949083109689A
:100DA00041F40001064A0832116007E004490831A5
:100DB000096821F40001024A0832116070470000FE
:100DC0000024014000280140003C0140FFFEF0FFEC
:100DD000FDF7F1FFFFFD3FFF0246002013680B42C5
:100DE00001D0012000E000207047CA430260704734
:100DF00070B502460020002300240B125568CEB2C5
:100E000005EA060415681D4202D00CB1012000E07D
:100E1000002070BD00220A12D34303607047000017
:100E200010B50446CA48844208D10121042000F0CC
:100E300027FB0021042000F023FB46E0C548844244
:100E400008D10121082000F01BFB0021082000F040
:100E500017FB3AE0C048844208D10121102000F07D
:100E60000FFB0021102000F00BFB2EE0BB4884425A
:100E700008D10121202000F003FB0021202000F0F8
:100E8000FFFA22E0B648844208D10121402000F058
:100E9000F7FA0021402000F0F3FA16E0B14884424E
:100EA00008D10121802000F0EBFA0021802000F021
:100EB000E7FA0AE0AC48844207D10121801500F02E
:100EC000DFFA0021A01500F0DBFA10BD10B50121FA
:100ED000084600F0D5FA0021012000F0D1FA10BD3B
:100EE0002DE9F041024600250026002000230024C1
:100EF000002791F803C00CF00F0591F803C01CF017
:100F0000100F03D091F802C04CEA050591F800C01B
:100F1000BCF1000F31D0146800202BE04FF0010C21
:100F20000CFA00F3B1F800C00CEA03069E4220D18F
:100F300083004FF00F0C0CFA03F7BC4305FA03FCD7
:100F40004CEA040491F803C0BCF1280F06D14FF01D
:100F5000010C0CFA00FCC2F814C00AE091F803C0BE
:100F6000BCF1480F05D14FF0010C0CFA00FCC2F89F
:100F700010C0401C0828D1D31460B1F800C0BCF1E7
:100F8000FF0F34DD546800202EE000F1080C4FF014
:100F9000010808FA0CF3B1F800C00CEA03069E42FF
:100FA00021D183004FF00F0C0CFA03F7BC4305FA74
:100FB00003FC4CEA040491F803C0BCF1280F05D1EE
:100FC00000F1080C08FA0CF8C2F8148091F803C07C
:100FD000BCF1480F07D100F1080C4FF0010808FAE6
:100FE0000CF8C2F81080401C0828CED35460BDE82D
:100FF000F0814FF6FF710180022181700421C170E0
:1010000070470246002093680B4201D0012000E0A7
:10101000002070470146886880B270470246002071
:10102000D3680B4201D0012000E000207047014648
:10103000C86880B2704701617047416170470AB16A
:10104000016100E041617047C16070474FF4803238
:101050000A438261816182618269826970470246C6
:101060000020424B18684FF68073184040EA021087
:1010700008433E4B186070473D49C8617047F0B562
:101080000A46002300240021002500F00046B6F1A6
:10109000004F02D1354EF16901E0344E7168C0F362
:1010A000034583B200F44016B6F5401F08D121F085
:1010B00070612E4E766826F070662C4F7E6012E0CE
:1010C00000F48016B6F5801F06D1032606FA05F453
:1010D000A14341F0706106E0460D360103FA06F6C1
:1010E000B14341F0706122B1460D360103FA06F6B4
:1010F000314300F00046B6F1004F02D11B4EF161C2
:1011000001E01A4E7160F0BD30B500228B071C0F54
:101110000F2303FA04F2154B08338C1053F82430D4
:101120009343124C08348D1044F8253023468C101C
:1011300053F824308C07240F00FA04F423430B4C9B
:1011400008348D1044F8253030BD0A4908607047D6
:1011500000080140000C0140001001400014014053
:1011600000180140001C0140002001400000014027
:1011700000002042DC002042DD48006840F0010011
:10118000DB49086008464068DA490840D8494860A9
:1011900008460068D8490840D549086008460068F4
:1011A00020F4802008600846406820F4FE00486073
:1011B0004FF41F0088607047CD49096821F48031E1
:1011C000CB4A11601146096821F480211160B0F505
:1011D000803F03D0B0F5802F0ED106E0C4490968E6
:1011E00041F48031C24A116007E0C149096841F405
:1011F000A021BF4A116000E000BF00BF704710B5DA
:1012000001460022002300204A11012A02D1B84CD5
:10121000236806E0022A02D1B54C236A01E0B44CEF
:10122000636A01F01F02012494401C4201D0012096
:1012300000E0002010BD38B50020009000240025FB
:1012400000BF3120FFF7DBFF05460098401C0090EF
:101250000098B0F5A06F01D0002DF2D03120FFF73B
:10126000CEFF08B1012400E00024204638BD01462D
:1012700000209F4A106820F0F80040EAC10010608A
:1012800070479E490860704702460020984B586896
:1012900020F47C1042EA01031843954B58607047D4
:1012A00096490866704701460020914A506820F030
:1012B00003000843506070478D48406800F00C0000
:1012C0007047014600208A4A506820F0F000084329
:1012D0005060704701460020854A506820F4E06065
:1012E00008435060704701460020814A506820F44E
:1012F000605040EAC1005060704729B17C4A527A80
:1013000002437B4B5A7204E0794A527A8243784B0B
:101310005A7270477A490860704701460020744A43
:10132000506820F440400843506070470021754ADF
:1013300011706F4A82F82010012802D0042808D1C9
:1013400003E001216F4A117004E005216D4A11701C
:1013500000E000BF00BF70476B49086070476449F8
:10136000096A0143624A116270476749443908605B
:10137000704730B500210022002400235C4D6D68C9
:1013800005F00C0121B1042905D0082923D105E07D
:101390005E4D056022E05D4D05601FE0544D6D68B7
:1013A00005F47012524D6D6805F48034022505EB8A
:1013B00092421CB9564D554305600BE04C4D6D688B
:1013C00015F4003F03D0524D5543056002E04F4DE8
:1013D0005543056002E04D4D056000BF00BF444D20
:1013E0006D6805F0F00109094A4D6B5C0568DD4048
:1013F00045603F4D6D6805F4E061090A454D6B5C41
:101400004568DD4085603A4D6D6805F46051C90A54
:10141000404D6B5C4568DD40C560354D6D6805F439
:101420004041890B3C4D6B5CC568B5FBF3F505612C
:1014300030BD29B12E4A526902432D4B5A6104E056
:101440002B4A526982432A4B5A61704729B1284A74
:1014500092690243264B9A6104E0254A92698243CD
:10146000234B9A61704729B1214AD2690243204B2C
:10147000DA6104E01E4AD26982431D4BDA6170478B
:1014800029B11B4AD2680243194BDA6004E0184ABA
:10149000D2688243164BDA60704729B1144A126948
:1014A0000243134B1A6104E0114A12698243104B44
:1014B0001A61704714494039086070470F49C86481
:1014C00070470B49C87170470948406A40F0807006
:1014D00007494862704701460020054A92680A425F
:1014E00001D0012000E00020704701498872704758
:1014F000001002400000FFF8FFFFF6FE000042422D
:10150000D8004242201002408004424200127A0079
:1015100000093D002C0000203C00002010B50446CE
:10152000FE48844208D10121C014FFF7A9FF002121
:10153000E014FFF7A5FFC4E0B4F1804F08D101210A
:101540000846FFF7AAFF00210120FFF7A6FFB8E039
:10155000F348844208D101210220FFF79EFF0021B9
:101560000220FFF79AFFACE0EE48844208D1012147
:101570000420FFF792FF00210420FFF78EFFA0E078
:10158000E948844208D101210820FFF786FF0021A5
:101590000820FFF782FF94E0E448844208D101214B
:1015A0001020FFF77AFF00211020FFF776FF88E078
:1015B000DF48844208D101212020FFF76EFF00217F
:1015C0002020FFF76AFF7CE0DA48844208D101213D
:1015D0004014FFF755FF00216014FFF751FF70E042
:1015E000D548844209D10121C804FFF749FF0021F1
:1015F0004FF40020FFF744FF63E0D048844209D154
:1016000001210805FFF73CFF00214FF48010FFF790
:1016100037FF56E0CA48844209D101214805FFF747
:101620002FFF00214FF40010FFF72AFF49E0C548C3
:10163000844208D101214020FFF72FFF00214020E4
:10164000FFF72BFF3DE0C048844208D101218020F4
:10165000FFF723FF00218020FFF71FFF31E0BB4889
:10166000844208D101218015FFF717FF0021A01542
:10167000FFF713FF25E0B648844209D10121080491
:10168000FFF7FEFE00214FF48030FFF7F9FE18E06F
:10169000B048844209D101214804FFF7F1FE00213E
:1016A0004FF40030FFF7ECFE0BE0AB48844208D16A
:1016B00001218804FFF7E4FE00214FF48020FFF7AA
:1016C000DFFE10BD00220288944B98420ED0994B49
:1016D00098420BD0B0F1804F08D0914B984205D082
:1016E000904B984202D0904B984204D14FF68F73A2
:1016F0001A404B881A438D4B984207D08C4B984226
:1017000004D04FF6FF431A40CB881A4302808B88DF
:1017100083850B880385814B98420BD0854B98427B
:1017200008D08B4B984205D08A4B984202D08A4B06
:10173000984201D10B7A038601238382704770B5EA
:10174000002400220023058C4FF6FE7635400584E8
:10175000028C8388048B4FF68F752C40B51E2C406D
:101760000D882C43751E2A400D892A434D882A4333
:101770006A4DA8420BD06F4DA84208D0744DA842C4
:1017800005D0744DA84202D0734DA84213D14FF634
:10179000F7752A404D892A434FF6FB752A408D88FC
:1017A0002A434FF6FF652B404FF6FF552B408D899E
:1017B0002B43CD892B4383800483CD888586028487
:1017C00070BD70B5002400220023058C4FF6EF7623
:1017D00035400584028C8388048B48F6FF752C40C5
:1017E0004FF6FF452C400D884FF6FF7606EA05259B
:1017F0002C434FF6DF752A400D8906EA05152A436A
:101800004D8806EA05152A43444DA84202D0494DA9
:10181000A8421DD14FF67F752A404D894FF6FF76BD
:1018200006EA05152A434FF6BF752A408D8806EA59
:1018300005152A434FF6FF352B404FF2FF752B401D
:101840008D8906EA85052B43CD8906EA85052B435C
:1018500083800483CD880587028470BD70B5002421
:1018600000220023058C4FF6FF6635400584028C6C
:101870008388848B4FF68F752C404FF6FC752C4077
:101880000D882C434FF6FF552A400D894FF6FF7601
:1018900006EA05252A434D8806EA05252A431F4DF9
:1018A000A84202D0234DA8421DD14FF2FF752A4015
:1018B0004D894FF6FF7606EA05252A434FF6FF3598
:1018C0002A408D8806EA05252A434EF6FF752B40EF
:1018D0004DF6FF752B408D8906EA05152B43CD8902
:1018E00006EA05152B4383808483CD88858702848F
:1018F00070BD70B5002200230024058C4EF6FF76E3
:1019000035400584038C8488828B48F6FF752A4015
:101910004FF6FF452A400D8820E00000002C0140D2
:101920000004004000080040000C0040001000408F
:101930000014004000340140004C014000500140C0
:101940000054014000180040001C004000200040EE
:101950000040014000440140004801404FF6FF763E
:1019600006EA05252A434DF6FF752B400D8906EA48
:1019700005352B434D8806EA05352B43FA4DA84221
:1019800002D0FA4DA84208D14BF6FF752C408D8944
:101990004FF6FF7606EA85152C4384808283CD8836
:1019A000A0F84050038470BD828B4FF2FF331A4081
:1019B0008283828B4FF6FF7303EA01231A438283EB
:1019C0007047F0B50C461546002200210026078C12
:1019D0004EF6FF7C07EA0C070784828B018C4FF6DA
:1019E000FF7707EA043640F6FF473A404FF6FF77A5
:1019F00007EA05273A434FF6FF7707EA03373A43EA
:101A0000D94FB8420ED0D94FB8420BD0B0F1804F69
:101A100008D0D74FB84205D0D64FB84202D0D64FE3
:101A2000B84206D14DF6FF77394046F48057394326
:101A300005E047F6FF57394044F480573943828325
:101A40000184F0BD828B4FF6F3731A408283828B40
:101A50000A4382837047F0B50C46154600220021E8
:101A60000026078C4FF6FF6C07EA0C070784828B71
:101A7000018C4FF6FF7707EA04264FF60C773A40C1
:101A80004FF6FF7707EA03172F433A43B64FB842A2
:101A90000ED0B64FB8420BD0B0F1804F08D0B44F43
:101AA000B84205D0B34FB84202D0B34FB84206D1C6
:101AB0004FF6FF57394046F48077394305E04FF23F
:101AC000FF57394044F48077394382830184F0BD65
:101AD000028B4FF2FF331A400283028B4FF6FF73E3
:101AE00003EA01231A4302837047F0B50C461546FA
:101AF000002200210026078C4FF6EF7C07EA0C0736
:101B00000784028B018C4FF6FF7707EA041640F634
:101B1000FF473A404FF6FF7707EA03373A434FF65D
:101B2000FF7707EA05273A438F4FB8420ED08F4F11
:101B3000B8420BD0B0F1804F08D08D4FB84205D0DD
:101B40008C4FB84202D08C4FB84206D14FF6DF77A7
:101B5000394046F01007394305E04FF65F773940CA
:101B600044F01007394302830184F0BD028B4FF625
:101B7000F3731A400283028B0A4302837047F0B565
:101B80000C46154600220021068C4FF6FE773E409B
:101B90000684028B018C4FF60C7632407E1C06EADE
:101BA00003162E433243704EB0420ED06F4EB042F9
:101BB0000BD0B0F1804F08D06D4EB04205D06D4EC5
:101BC000B04202D06C4EB04206D14FF6FD763140A5
:101BD00044F00106314305E04FF6F576314044F01C
:101BE0000106314302830184F0BD70B505460C4601
:101BF0005D4885420ED05D4885420BD0B5F1804FDF
:101C000008D05B48854205D05A48854202D05A48E0
:101C1000854200D100E000BF208850B92389A28806
:101C200061882846FFF7ABFFE1882846FFF79EFF53
:101C300025E0208804280AD12389A28861882846C3
:101C4000FFF753FFE1882846FFF742FF17E020889F
:101C500008280AD12389A28861882846FFF7FBFE5D
:101C6000E1882846FFF7EEFE09E02389A288618813
:101C70002846FFF7A6FEE1882846FFF795FE70BDCF
:101C80002DE9F04105460C4600260127608808B979
:101C9000022600E00026A088012801D1022700E0EA
:101CA00001272088A0B92389A28861882846FFF7E8
:101CB00066FFE1882846FFF759FF23893A463146F7
:101CC0002846FFF712FFE1882846FFF701FF13E0DF
:101CD0002389A28861882846FFF707FFE188284604
:101CE000FFF7F6FE23893A4631462846FFF747FFBD
:101CF000E1882846FFF73AFFBDE8F0810A884B8863
:101D00001A438B881A43CB881A430B891A434B8991
:101D10001A438B891A43A0F8442070474FF6FF718D
:101D2000818000210180C1804180017270470021C3
:101D3000018041808180C180018141818181C18197
:101D40007047002101804180012181800021C180F4
:101D5000018170470021018041808180C180018123
:101D60004181818170470000002C01400034014016
:101D70000004004000080040000C004021B102882F
:101D800042F00102028004E002884FF6FE731A401E
:101D90000280704731B1B0F8442042F40042A0F80C
:101DA000442005E0B0F84420C2F30E02A0F844201D
:101DB00070471AB183890B43838102E083898B4387
:101DC000838170478182704741EA0203A0F848305E
:101DD00070471AB183890B43838102E083898B4367
:101DE0008381704701894FF6F87211400181704775
:101DF0000A46002101894FF68F7319401143018172
:101E0000704730B504460D4629462046FFF7F0FFDF
:101E1000208940F00700208130BD2DE9F0410446C3
:101E20000D4616461F46602D06D13B46012231461F
:101E30002046FFF75AFE05E03B4601223146204688
:101E4000FFF79DFE29462046FFF7D2FF208940F08C
:101E500007002081BDE8F08130B50C4600210189E2
:101E6000C9B24FF6FF7505EA0325154325432943FB
:101E7000018130BD2DE9F04105460E4617469846D2
:101E8000002443463A4631462846FFF7E5FF2C89B1
:101E90004FF6F870044044F007044FF68F7004408A
:101EA00044F070042C81BDE8F081F0B504460D4685
:101EB00016461F463B46324629462046FFF7CCFFD2
:101EC000208940F480402081F0BD018582827047E6
:101ED0000A46002101884FF68F7319401143018093
:101EE0007047F0B50C4615461E460021002200231F
:101EF0000189028B038C4FF6F877394021434FF666
:101F0000FC473A4040F201173A434FF6DD773B4039
:101F10004FF6FF7707EA06172F433B430181028301
:101F20000384F0BD0A460021018B4FF68F731940E0
:101F30001143018370470A460021018B48F6FF7365
:101F400019404FF6FF7303EA0223194301837047D8
:101F50000A460021818B4FF68F731940114381830C
:101F600070470A460021818B48F6FF7319404FF6EF
:101F7000FF7303EA022319438183704721B102886A
:101F800042F08002028004E002884FF67F731A401C
:101F90000280704721B1828842F00402828004E00E
:101FA00082884FF6FB731A408280704721B1828885
:101FB00042F00802828004E082884FF6F7731A40EC
:101FC0008280704721B1828842F00102828004E061
:101FD00082884FF6FE731A40828070470A460021BD
:101FE000018B4FF6F77319401143018370470A467E
:101FF0000021018B4FF2FF7319404FF6FF7303EA84
:1020000002231943018370470A460021818B4FF652
:10201000F77319401143818370470A460021818B71
:102020004FF2FF7319404FF6FF7303EA022319437F
:10203000818370470A460021018B4FF6FB731940DC
:102040001143018370470A460021018B4FF6FF338D
:1020500019404FF6FF7303EA0223194301837047C7
:102060000A460021818B4FF6FB731940114381838F
:1020700070470A460021818B4FF6FF3319404FF617
:10208000FF7303EA02231943818370470A46002144
:10209000018B4FF67F7319401143018370470A4645
:1020A0000021018BC1F30E014FF6FF7303EA0223F7
:1020B0001943018370470A460021818B4FF67F73D5
:1020C00019401143818370470A460021818BC1F377
:1020D0000E014FF6FF7303EA022319438183704711
:1020E0000A460021018C4FF6FD731940114301840B
:1020F00070470A460021018C4FF6F77319401143CF
:10210000018470470A460021018C4FF6DF731940A5
:102110004FF6FF7303EA02131943018470470A461E
:102120000021018C4FF67F7319404FF6FF7303EACD
:1021300002131943018470470A460021018C4FF6AF
:10214000FF5319404FF6FF7303EA0223194301843A
:1021500070470A460021018C4FF2FF7319404FF679
:10216000FF7303EA02231943018470470A460021E2
:10217000018C4DF6FF7319404FF6FF7303EA0233EB
:1021800019430184704730B5002301248C40A3B269
:10219000048C9C430484048C02FA01F5ADB22C43F8
:1021A000048430BD30B5002304248C40A3B2048CD9
:1021B0009C430484048C02FA01F5ADB22C430484E0
:1021C00030BD70B5034600200024184618300125A4
:1021D0008D40ACB21D8CA5431D8409B1082909D1DD
:1021E00000EB6100056825F0700505600568154382
:1021F00005600EE00D1FC5F34E052844056825F463
:10220000E045056005684FF6FF7606EA022635438D
:10221000056070BD21B1028842F00202028004E034
:1022200002884FF6FD731A400280704721B1028880
:1022300042F00402028004E002884FF6FB731A4069
:102240000280704721B1828842F08002828004E0DF
:1022500082884FF67F731A408280704702884FF65B
:10226000F7731A40028002880A430280704782880E
:102270004FF68F731A40828082880A4382807047AB
:1022800002894FF6F8731A40028102890A430281DB
:10229000704702894FF67F731A40028102890A4310
:1022A00002817047818470478185704781867047BD
:1022B0000187704781877047A0F8401070470288F7
:1022C0004FF6FF431A40028002880A43028070479B
:1022D0000146888E70470146088F70470146888FF7
:1022E00070470146B1F8400070470146888C70473E
:1022F0000146088D704702460020138A0B4201D028
:10230000012000E000207047CA430282704730B5C8
:102310000246002000230024158A05EA010395895E
:1023200005EA010413B10CB1012000E0002030BD2A
:10233000CA430282704770477047704710B500F07B
:1023400009F8006810BD10B5044600F003F80460F9
:1023500010BD000000487047700000200048704722
:10236000700000207546FFF7F9FFAE46050069468C
:10237000534620F00700854618B020B5FDF712FF40
:10238000BDE820404FF000064FF000074FF0000876
:102390004FF0000B21F00701AC46ACE8C009ACE8F7
:1023A000C009ACE8C009ACE8C0098D4670470446D6
:1023B000AFF300802046FDF7E0FE00000149182041
:1023C000ABBEFEE7260002007047490050EAC1207C
:1023D00018BF04204A0D18BF40F0010040F2FF7200
:1023E000B2EB515F08BF40F00200012808BF052092
:1023F000704700002DE9F74F144696B00021C4E95C
:1024000002111799089121F00045CA498D4206DC56
:102410001799C4E9000119B00020BDE8F08FC64942
:10242000DFF818A3A9423CDD0899C54E0029C54F25
:10243000C54A1799534619DD00F094FF554506D05B
:10244000C24AC34B00F08EFFC4E900010AE04FF01E
:10245000D352BF4B00F086FF32463B4600F082FF6E
:10246000C4E9000119B00120BDE8F08F00F062FB63
:10247000554506D0B54AB64B00F05CFBC4E90001F7
:102480000AE04FF0D352B24B00F054FB32463B46C9
:1024900000F050FBC4E9000119B04FF0FF30BDE877
:1024A000F08FAC49A942179978DB21F000488346A8
:1024B000A94AAA4B414600F015FE0022A84B00F0A5
:1024C00039FB00F04BFD099000F0A5FD06460F46D4
:1024D0009D4A534600F006FE5A46434600F036FF3A
:1024E00080468A46994A9A4B3046394600F0FAFDB2
:1024F0002A0D01250B924246534600F027FF032D7B
:10250000C4E9000139D00B98C1F30A51401A05EB18
:1025100045111139814230DA9248C346784400EBC4
:102520000510CDF81CA00C90D0E9002330463946A8
:1025300000F0D8FDCDE9020102460B465846079946
:1025400000F010FF80468A4602460B46584607991F
:1025500000F008FFDDE9022300F004FF83460C9839
:1025600003913946D0E90223304600F0BBFD5A46BC
:10257000039B00F0F7FE6D1CBDE708980028A2BF82
:10258000099819B0BDE8F08F616881F00041616081
:10259000099819B04042BDE8F08FFFE7C1F313017D
:1025A00041F480110E911799C1F30A51A1F2F5324D
:1025B000511102F01F08C8F12002129200220C9261
:1025C0000D92694A7A4402EB810101F1140C0DA9C4
:1025D0005FF00607DCF80020DCF8045002FA08F38C
:1025E000129AD1F800A025FA02F21A430E9BA2FB20
:1025F0000356A2FB00329A4415449A4534BF4FF06B
:10260000010B4FF0000B51F8043C05EB0B0E73442B
:10261000954234BF012200221644BBF1000F02D0C4
:10262000AB4202D903E0AB4201D2012200E000221A
:102630003244C1F800A041E90223091FACF1040CA7
:102640007F1EC7D10898DDE90A6500F10050800FB0
:1026500011900898099F800000F0DDFC80468A46B2
:10266000384600F0EFFC6FF01D0201F004F9074658
:102670003046059100F0E6FC6FF03D0201F0FBF8FA
:10268000CDE90310284600F0DDFC6FF05D0201F09B
:10269000F2F8064602460B460191DDE9031000F010
:1026A00049FA3A46059B00F045FA4246534600F087
:1026B00041FA00200D4683464246534600F052FE42
:1026C0003A46059B00F04EFEDDE9033200F04AFE7B
:1026D0003246019B00F03AFEDFF89480234A4346DD
:1026E00000F000FD06460F46224A234B5846294675
:1026F00000F0F8FC32463B4600F01CFA0F46064656
:102700004FF0A84243465846294600F0EBFC3246BB
:102710003B4600F00FFA179A12F0004F04D0119ABE
:1027200081F0004152421192C4E90001119819B0A0
:10273000BDE8F08FFB21E93F7CD90240FB21F93F46
:102740007370032E8A19A33B000040543163621A50
:1027500061B4D03DFB21394183C8C96D305FE43F8E
:102760000000E03F18140000A0130000182D44548E
:10277000FB21F93D3326A611460B113C2DE9FF4DF7
:1027800021F0004807460C46B8F1795F08DA00F0FE
:10279000E5FB002801BF0020324904B0BDE8F08D00
:1027A0003A4623461046194600F09CFC0546024670
:1027B0002D480E460B460621784400F05DF82A4667
:1027C000334600F08FFCDDE9022382468B46384613
:1027D000214600F087FC04460F4652465B462846D9
:1027E000314600F07FFC22463B4600F0BBFD074629
:1027F0008A464FF0FF322846314601F03CF81B4A2A
:1028000090450ADA3A46534600F0ACFD04B0002287
:10281000BDE8F04D134B00F099BD154A4245A8BFE5
:10282000A8F500154FF00004B8BF124D22462B4604
:1028300000F098FD0646884622462B4600200949AE
:1028400000F090FD04460D463A4653463046414658
:1028500000F088FD04B022462B46BDE8F04D00F0A4
:1028600075BD00000000F03F4C1100003333D33F32
:102870000000E93F0000D23F2DE9F0414F1E00EB80
:10288000C7010446D1E9000115461E4637F006028D
:102890000DD02A46334600F025FC7F1E04EBC7030B
:1028A000D3E9002300F046F937F00602F1D1022FF8
:1028B00025D0042F13D0062F18BFBDE8F0812A467B
:1028C000334600F00FFCD4E90A2300F033F92A461E
:1028D000334600F007FCD4E9082300F02BF92A4620
:1028E000334600F0FFFBD4E9062300F023F92A4623
:1028F000334600F0F7FBD4E9042300F01BF92A4625
:10290000334600F0EFFBD4E9022300F013F92A4626
:10291000334600F0E7FBD4E90023BDE8F04100F0C6
:1029200009B900002DE9FF4D054621F0004084B0B3
:102930000C46B0F1795F0BDA2846FFF746FD042814
:1029400008BF00F065F8284608B02146BDE8F08DC4
:102950002A460B46104600F0C5FB06460F462A469F
:10296000234600F0BFFB804626488A4632463B4657
:1029700005217844FFF780FF83461098029160B3E9
:10298000214A224B4046514600F0ACFBCDE9000104
:102990005A4640465146029B00F0A4FB82468846B8
:1029A000DDE906014FF0FF3200F065FF5246434675
:1029B00000F0D8FC32463B4600F094FBDDE90623EC
:1029C00000F0D0FCDDE9002300F0CCFC08B02A4682
:1029D0002346BDE8F04D00F0B9BC0B465A463046E0
:1029E000394600F07FFB084A084B00F0A3F8424646
:1029F000534600F077FB08B02A462346BDE8F04D69
:102A000000F098B88A100000495555555555C5BF76
:102A1000024A0020110700F02EBF000001FDFFFF59
:102A200000B5294B21F0004287B09A4203DC002216
:102A30001346009233E0254B9A420DD168B94FF00E
:102A40000100FFF780FC002207B013461046114634
:102A50005DF804EB00F02AB906DB07B04FF0010285
:102A60005DF804EB00F007BF02AAFFF7C3FC10F00B
:102A700003014FF001000DD0012914D002291AD012
:102A80000DF1080CBCE80F00FFF778FE07B081F0ED
:102A9000004100BD0DF1080C0090BCE80F00FFF7ED
:102AA00041FF07B000BD0DF1080CBCE80F00FFF7B7
:102AB00065FE07B000BD0DF1080C0090BCE80F00EA
:102AC000FFF730FFE2E70000FB21E93F0000F07F65
:102AD00021F00042A2F16052B2F5801F01F00043E4
:102AE00028BFD2F17F6C0BD95FEA001C43EAC20217
:102AF00042EB507018BF704728BF20F001007047AC
:102B0000B2F5801FBCBF184670474FEA410C1CF558
:102B1000001F02D2084600F077BE70B500F08CFBB3
:102B200000000089FFF7F6BF4FF00040A0F58000DD
:102B30007047000010B591EA030F48BF83F00043CF
:102B400000F11884841A71EB030C05D2121943EBBF
:102B50000C03001B61EB0C01DFF824E14FEA115478
:102B6000A4EB135C1EEA430F18BF9EEA445F73D0C8
:102B700023EA0E03DCF1200E21EA045143F4801312
:102B800032D322FA0CFE10EB0E0023FA0CFE41EBBE
:102B90000E01CCF1200E03FA0EFE10EB0E0051F1E7
:102BA0000001B1F5801FCCF1200E32D201EB0451AF
:102BB00012FA0EF2BDE8104058BF7047401C38BFF3
:102BC0005FEA420218BF7047002814BF20F00100DE
:102BD00041F100014FEA410313F5001F38BF704770
:102BE000A1F1C04100F076BB012A43EB0302ACF136
:102BF000200CDCF11F0E32BF4FF0000E23FA0CF355
:102C000010EB030041EB0451B4EB115FD0D0A1EB0A
:102C1000045101F5801149085FEA300001EB0451CD
:102C20000ED350F1000038BF12FA0EFE08D1BDE8F5
:102C30001040C9E7401C38BF5FEA4202CAD1C3E76F
:102C4000BDE810404FEA410313F5001F38BF70473D
:102C5000A1F1C04100F03EBB9EEA445F08D011EAFA
:102C60005E0FBDE8104004BF01F000410020704736
:102C7000BDE8104070B500F0DFFA00BF64FBBE3E57
:102C80000000E0FF02494FF0000000F0C2BD00BFAD
:102C90000000F87F491058BFC1F140415B1058BF98
:102CA000C3F140438B42EFF3008070472DE9C041F0
:102CB00030B4DFF8A0C23CEA111418BF3CEA131488
:102CC00000F0EC8081EA03051CEA111444EAD57493
:102CD00018BF1CEA131500F0C780A4EB05044FF0E1
:102CE000004545EAC12145EAC32341EA505143EA80
:102CF000525304F17F74994204F500344FEAC02026
:102D00004FEAC22208BF904200F09C804FEA136550
:102D10000FF24016765D4FEA134506FB05F7C7F143
:102D2000807706FB07F74FEAD737A7FB03687642A1
:102D3000C8F58038A7FB06CE38BFA8F1010807FB0D
:102D400008E64FF0000EA6FB028CE6FB03CEDCF19A
:102D5000000CCEF1004E38BFAEF1010EA6FB0C58B0
:102D60004FF000074FF00005E6FB0E87A1FB08C6F9
:102D7000A0FB07CE16EB0E0645F10005E1FB07654B
:102D800015F1E04E7EBFA4F580345FEA46066D4142
:102D900016F1800745F100054FEA17274FEA06664E
:102DA00047EA0567A6F1DE46B6F1805F4FEA1525D2
:102DB0001FD9384624F0010C05EBC471BCF1FE6F3D
:102DC00001EB0C1102D8F0BCBDE8008124425CBFCD
:102DD00001F5801E9EEAC47F02D4F0BCBDE80081EC
:102DE000244238D4F0BCA1F1C041BDE8004100F05C
:102DF00071BA4FEAD22242EA43524FEAD323A7FBE9
:102E000002864FEAD02040EA415007FB03661EEAE3
:102E10000E0F4FEAD12105FB026658BFA6EB005604
:102E2000B6EB00564FEA520E4EEAC37E18EB0E0E7A
:102E300056EB530EBDD518EB02085E417F1C55F1D1
:102E40000005B6E74FF480154FF000074FF000067D
:102E50004FF00008ADE7F0BC4FF0000001F1C041B9
:102E600001F00041BDE8008111EA0C1F0CEA1315C6
:102E700000D00CE013EA0C1F00F025804FF000009A
:102E8000F0BC81EA030101F00041BDE80081F0BC23
:102E9000BDE8004181EA030100F01CBAF0BCBDE8C6
:102EA000004170B500F0C8F9097EFC3E00F007B89B
:102EB00081EA03014FF0000001F00041704781EA10
:102EC000030100F007BAF0BCBDE800414FF000007C
:102ED00021497047FFFDFBF9F7F5F4F2F0EEEDEB59
:102EE000E9E8E6E4E3E1E0DEDDDBDAD8D7D5D4D308
:102EF000D1D0CFCDCCCBCAC8C7C6C5C4C2C1C0BF54
:102F0000BEBDBCBBBAB9B8B7B6B5B4B3B2B1B0AF59
:102F1000AEADACABAAA9A8A8A7A6A5A4A3A3A2A13D
:102F2000A09F9F9E9D9C9C9B9A99999897979695F8
:102F300095949393929191908F8F8E8E8D8C8C8B94
:102F40008B8A89898888878786858584848383821C
:102F5000828181800000FF070000F87F4FEA410373
:102F60004FEA5353A3F58063D3F11E03C8BFD3F1D7
:102F7000210C0CDD4FF0004242EAC12242EA5052DD
:102F800032FA03FC8CEAE17CACEBE1707047102B69
:102F9000C4BF0020704703F5787CBCF1FF3F04D02C
:102FA0006FF0004282EA2100704770B500F044F9EA
:102FB0004992248000207047F2E700004FEA115345
:102FC000A3F58063D3F11E03A8BFD3F1200C08DB67
:102FD0004FF0004242EAC12252EA505232FA03F064
:102FE000704709420BD4102BC4BF0020704703F573
:102FF000787CBCF1FF3F05D04FF0FF3070474FF0B9
:103000000000704770B500F017F900BF49922480A6
:1030100000207047F0E710F0004248BF4042B0FA8D
:1030200080F310FA03F10AD0C3F11D0303F58063A6
:103030004FEA415002EB035202EBD12170474FF0AF
:1030400000007047B0FA80F310FA03F10AD0C3F120
:103050001D0303F580634FEA41504FEA035202EB30
:10306000D12170474FF000007047000051EA030C77
:1030700017D41CF5801F58BFBCF5801F00F10680D7
:10308000994218BF704708BF9042704707D711F5A3
:10309000801F58BF13F5801F19D499427047894289
:1030A00070471CF5801F08D5BCF5801FF7D58B42F3
:1030B00018BF704708BF824270474FF4001C1CEBDA
:1030C000410F38BF1CEB430F01D28B42704770B5E4
:1030D00000F0B2F8922449004FF000514FF08053B5
:1030E000FFF7D8BDDFF848C170B51CEA111E1EBF3E
:1030F0001CEA13159EEA0C0F95EA0C0F00F06F8086
:1031000081EA030423EA4C134EEAD47E21EA4C11EF
:1031100041F4801143F48013AE44A1FB024CA0FBA8
:103120000365AEF17F7E361955EB0C05A1FB034C10
:103130004CF10003A0FB021C16EB0C06654153F199
:103140000003094218BF46F0010613F4007F0BD1BB
:103150004FEA03314FEA0530340341EA155140EAA2
:1031600016506FF003020AE04FEAC3214FEAC52070
:10317000F40241EA555140EA56506FF0020202EB68
:103180002E4201EB025585EACE710AD05FEA440C6B
:1031900018BF24F0004450F1000041F1000120EA82
:1031A000D47040F2FE7C624500D270BDA84214BFCC
:1031B0004FF080444FF04044002E08BF0024BEF181
:1031C000806FA8BFA1F1C041BDE8704080F282804D
:1031D0004FF0000001F1C04101F0004170479EEA4C
:1031E0000C0F0CEA131518BF95EA0C0F06D04FF020
:1031F000000081EA030E0EF0004170BD00F01CF8E3
:103200008900013E00F007B800F009B84FEA430C0E
:103210005FEA5C5C08D081EA030100F05BB84FEA2A
:10322000410C5FEA5C5CF6D14FF000000149704749
:103230000000FF070000F87F0EF1020E2EF0030ED3
:103240005EF8046B364205D4012A43EB030515F5FD
:10325000001F12D8012841EB010C1CF5001F0CD8EF
:103260000ED14FEAD17C15F5001F0CEB4C0C0CF184
:10327000020C08BF4CEBD37C04E04FF0080C01E0DB
:103280004FEAD37C0CEB4C0526FA05F606F0070650
:10329000B6F1040C06D20EEB860CBDE870404CF083
:1032A000010C6047DFE80CF0090B02024FF000410F
:1032B0004FF00000A1F5002170BD1946104601280D
:1032C00051EB010418BFD4F5001484BF002001F0B5
:1032D000004170BD0808A0F500114FEA31017047A8
:1032E00053EA010C17D41CF5801F58BFBCF5801F92
:1032F00000F106808B4218BF704708BF82427047BA
:1033000007D713F5801F58BF11F5801F19D48B42C2
:1033100070479B4270471CF5801F08D5BCF5801F85
:10332000F7D5994218BF704708BF904270474FF4D5
:10333000001C1CEB430F38BF1CEB410F01D299421C
:1033400070470FB40CBC03BCFFF7C1BE91EA030F7A
:1033500010B581F000413FF5F5AB83F0004300F07C
:1033600009B8000010B591EA030F48BF83F000438D
:103370003FF5E8AB841A71EB030C07D212198CF0FD
:10338000004C43EB0C03001B61EB0C01DFF8A4E1E4
:103390004FEA1154A4EB135C1EEA430F18BF9EEAD8
:1033A000445F00F0B08023EA6E03524221EA0451E8
:1033B000C3EB6E0338BF5B1EDCF1200E25D322FA6F
:1033C0000CFE10EB0E0043FA0CFE41EB0E01CCF1AB
:1033D000200E03FA0EFE10EB0E0051F10001CCF1AD
:1033E000200E29D412FA0EF201EB0451BDE8104070
:1033F00058BF7047401C1CBFB2F1004F70470028F7
:103400000CBF491C20F00100704712EB020E43EB89
:10341000030218BF4FF0010E4EEA4202ACF1200C3D
:10342000DCF11E0E54D943FA0CFE10EB0E0051F1E4
:10343000FF31CCF11E0ED5D50EF1010E12FA0EFEA3
:10344000404141EB010101EB445C5FEA5C5C10D957
:1034500010EBDE7001EB045138BFBEF1004FBDE848
:10346000104018BF704700280CBF491C20F0010015
:10347000704730D24FEAD42C11F5001124F40064C7
:103480001BD0B1FA81F20B3AA41AA41ED2F1200388
:10349000914030FA03F31943904001EBCC71002CBA
:1034A00001EB0451BDE81040A8BF704701F1C041D5
:1034B0004FF0000001F000417047B0FA80F310FABD
:1034C00003F100D110BDE41A173C4805C90AE4E72E
:1034D00001EB045110BD491001EB0451BDE810404F
:1034E0004FEA300002E04FF0000170474A0008BF89
:1034F0000042F8D0B2F5001F28BF704701F000412C
:103500004FF0000070479EEA445F07D011EA5E0F5B
:10351000BDE8104004BF002100207047BDE8104006
:1035200070B5FFF789FE00BF40DFF63E83F0004133
:10353000104670470000E0FF43004FEAD30C4FEA0B
:103540003C0C43401FBF40070CF1605113F0FE4F8D
:1035500070471CF0006F03D100200CF00041704751
:103560000CF0004343EA507010B540EACC0000F084
:1035700005F900BF000000924FEA0001FFF7AABE64
:103580004FF000414FF00000A1F50021704700000E
:103590004FF47F0C1CEAD0121EBF1CEAD11392EA32
:1035A0000C0F93EA0C0F00F0858090EA010F48BFE2
:1035B00042F4807240F4000C41F400002CF07F4192
:1035C00020F07F4000B58142A2EB03020FF2081CFD
:1035D000ACEB504EC0F100009EF800E04FEA4E0EFA
:1035E00000FB0EFC38BF49004FEA2C1C02F5FA0222
:1035F0000CFB0EF34FEACE1E4FEA112C4FEAC1210D
:103600000EEB635E42EB22420EFB0CFC4FEA1C53B6
:1036100000FB03114FEA112C4FEA01310EFB0CFCA9
:103620004FEADC4C00FB0C11C14228BF09184CEBDF
:1036300003335DF804EB10EB410143EBC250B2F5EC
:103640007C0F38BF704729D512F0F00F1CBF00F176
:10365000C04000F0004070470081828384858687E7
:1036600088898B8C8D8E8F919293959697999A9C41
:103670009D9FA0A2A3A5A7A8AAACAEB0B2B3B5B7B0
:10368000B9BCBEC0C2C5C7C9CCCED1D4D7D9DCDF86
:10369000E2E6E9ECF0F3F7FAFE0000004FEA400C36
:1036A0000CF1807CBCF17E4F28BF7047B0F1C04068
:1036B00000F0AAB890EA010F0CEAD11348BF42F417
:1036C0008072624538BF634507D213F47F0F16D06E
:1036D00080EA010000F00040704710B500F04EF89D
:1036E000097EFC3E00F005B880EA010000F00040D1
:1036F000704780EA010000F0004000F085B812F445
:103700007F0F04BF0248704780EA010000F07CB8D8
:103710000000C07F41000B0ED3F19E0208D950F487
:1037200000034FEA032323FA02F048BF40427047E8
:1037300010B500F023F800BF4992248000207047A4
:103740006FF0004282EA20007047000010F0004154
:1037500048BF4042B0FA80F310FA03F2C3F19D0370
:103760000BD051EAC35101EB1220530638BF70470A
:1037700000F1010008BF20F0010070470EF1020EB9
:103780002EF0030E5EF8044B244204D44FEA4102AB
:10379000B2F17F4F11D84FEA4003B3F17F4F0CD8FD
:1037A0000ED14FEAD07CB2F17F4F0CEB4C0C0CF1F8
:1037B000020C08BF4CEBD17C04E04FF0080C01E098
:1037C0004FEAD17C0CEB4C0324FA03F404F0070419
:1037D000B4F1040C06D20EEB840CBDE810404CF0A2
:1037E000010C6047DFE80CF0070802024FF00040D0
:1037F000A0F5800010BD0846420018BFD2F18072CB
:1038000088BF00F0004010BDFF2141EAD050C00544
:1038100070470CF00F03092B08BF082000F05980F7
:103820000A2B0BD0082B18BF704708BF1CF0400FA5
:103830000AD04FF000004FF0000170471CF0400F1D
:1038400018BF4FF0004070471CF0100F08D020F058
:10385000704300F07F4242EAD3014FEA4370704761
:1038600000F0604021F07F4242EA000201F07F4018
:1038700040EA727070474FF0FF0C4CF4E06C1CEAA9
:1038800011531CBF9CEA030C9445C2BFDA4201EB02
:1038900002517047002B0DD0BCF1000F0FD0002A51
:1038A00001F00041A4BF41F0E04141F07F614FF0E1
:1038B0000000704701F000414FF00000704750EAEF
:1038C00001334FF09B0C18BF4CF0806C7FF4DAA9E9
:1038D00070471CF4801F11D01CF4E02F03D06FEA56
:1038E000CC31490070474FF04050EFF3008222F096
:1038F000704242EA000282F3008870474FF00000F5
:1039000070470000000000004C5555555555A53F27
:103910007751C1166CC156BF9015CB19A001FA3E64
:10392000AD529C804F7E92BEC4B1B4BD9EEE213E8E
:10393000D43888BEE9FAA8BD00004054FB21F93F05
:103940003163621A61B4D03D0000601A61B4D03DA9
:103950007370032E8A19A33B0000002E8A19A33B23
:10396000C14920259A837B39000000000000000037
:103970006E83F9A22915444ED15727FCC0DD34F5DA
:10398000999562DB4190433CAB6351FE61C5BBDE60
:103990003A6E24B7E0D24D42EA2E49061C92D10974
:1039A0001CEB1DFE3EA729B1F53582E88444BB2EF1
:1039B00026709CE9417E5FB439D69139F43953833E
:1039C0008B5F849C3B28F9BDFF97F81F0F9805DE9D
:1039D0008B112FEF1F6D0A5ACF7E366DB709CB279B
:1039E000663F464F2DEA5F9EC7BA27757BF1E5EB30
:1039F000F739073DEA92528AB15FFB6B085D8D1F74
:103A0000A6F810111111813FD561C119A0012ABF7B
:103A10007DFEB157E31DC73EEB9C2B8AE6E55ABEFF
:103A20007CD5CF5A3AD9E53D483A0008000000203D
:103A30004000000028010008883A000840000020EB
:103A4000900600004401000800A24A0400000000A3
:103A5000000000000102030406070809000000003E
:103A60000000000000000000000000000000000056
:103A70000000000000000000010203040102030432
:083A800006070809020406080C
:040000050800018965
:00000001FF
