:020000040800F2
:100000007806002089010008C9010008CB0100081A
:10001000CF010008D3010008D7010008000000004C
:10002000000000000000000000000000DB010008EC
:10003000DD01000800000000DF010008E101000808
:10004000A3010008A3010008A3010008A301000800
:10005000A3010008A3010008A3010008A3010008F0
:10006000A3010008A3010008A3010008A3010008E0
:10007000A3010008A3010008A3010008A3010008D0
:10008000A3010008A3010008A3010008A3010008C0
:10009000A3010008A3010008A3010008A3010008B0
:1000A000A3010008A3010008A3010008A3010008A0
:1000B000A3010008A3010008A3010008A301000890
:1000C000A3010008A3010008A3010008A301000880
:1000D000A3010008A3010008A3010008A301000870
:1000E000A3010008A3010008A301000800F002F822
:1000F00000F03AF80AA090E8000C82448344AAF188
:100100000107DA4501D100F02FF8AFF2090EBAE885
:100110000F0013F0010F18BFFB1A43F0010318473B
:100120006405000084050000103A24BF78C878C137
:10013000FAD8520724BF30C830C144BF04680C60ED
:10014000704700000023002400250026103A28BF35
:1001500078C1FBD8520728BF30C148BF0B60704739
:100160001FB51FBD10B510BD00F055FA1146FFF7C1
:10017000F7FF00F027F900F073FA03B4FFF7F2FF7E
:1001800003BC00F077FA000009488047094800479F
:10019000FEE7FEE7FEE7FEE7FEE7FEE7FEE7FEE737
:1001A000FEE7FEE704480549054A064B7047000094
:1001B000C5020008ED000008780000207806002045
:1001C0007802002078020020704700BFFEE700BFE1
:1001D000FEE700BFFEE700BFFEE7704770477047CD
:1001E00010B500F0EEF910BD0CB5002001900090A4
:1001F0006B48006840F480306949086000BF684877
:10020000006800F4003000900198401C01900098B4
:1002100018B90198B0F5A06FF1D16148006810F4E9
:10022000003F02D00120009001E0002000900098E3
:10023000012842D15B48006840F01000594908602D
:100240000846006820F0030008600846006840F097
:1002500002000860524840685149486008464068BA
:1002600048600846406840F480604860084640683E
:1002700020F47C1048600846406840F4E81048606C
:100280000846006840F08070086000BF444800687D
:1002900010F0007FFAD04248406820F00300404947
:1002A00048600846406840F00200486000BF3C4893
:1002B000406800F00C000828F9D10CBD10B5FFF71C
:1002C00093FF10BD10B53648006840F00100344976
:1002D000086008464068344908403149486008468B
:1002E0000068324908402E4908600846006820F43A
:1002F000802008600846406820F4FE0048604FF403
:100300001F008860FFF7DAFF4FF00060284908609F
:1003100010BD10B5002100200022214B5B6803F0C6
:100320000C0121B1042906D0082928D107E0214B6E
:10033000214C236027E01F4B1F4C236023E0184B08
:100340005B6803F47010164B5B6803F48032022381
:1003500003EB904022B9194B4343174C23600DE047
:100360000F4B5B6813F4003F04D0144B4343124C13
:10037000236003E00F4B43430F4C236003E00D4B1E
:100380000D4C236000BF00BF054B5B68C3F3031334
:100390000B4CE15C084B1B68CB40074C236010BD45
:1003A00000100240002002400000FFF8FFFFF6FEB0
:1003B00008ED00E000127A000000002000093D0076
:1003C00004000020002500246548806940F00800F2
:1003D000634988610846806940F00400886161488B
:1003E000006820F0F0005F490860081D006820F0F8
:1003F0007040091D08605C48006820F470605A492C
:1004000008605848006840F0200056490860081D00
:10041000006840F00040091D08605348006840F43F
:1004200000605149086000F0A1F84E48143000689F
:1004300040F002004B491431086090E04948083010
:10044000006848490831086028B125B91CB9002561
:100450004FF4FA7440E043480830006810F4004F4D
:1004600006D02DB9B4F5FA7F02D14FF4FA7533E016
:100470003D48001D006810F4806F0BD0B5F5FA7F81
:1004800008D1B4F5FA7F05D1FA25FA24C82000F086
:10049000A9F821E03448001D006810F4806F09D0ED
:1004A000FA2D07D1FA2C05D165006400C82000F0B0
:1004B00099F811E02B480830006810F4004F0BD079
:1004C000B5F5FA7F08D1B4F5FA7F05D100254FF4D0
:1004D000FA74642000F086F800263CE0A64201DAB7
:1004E000012000E00020002D01DD012100E00021BD
:1004F000084217D01B481030006840F0020019492C
:1005000010310860012000F06DF81748001D0068E8
:1005100010F4806F05D113480830006810F4004FC4
:1005200018D01BE00F481430006840F002000D495D
:1005300014310860012000F055F80B48001D0068D8
:1005400010F4806F05D107480830006810F4004FA0
:1005500000D003E0761C6000B042BFDC00BF6DE756
:1005600000100240000C01400408014070B5FFF784
:10057000D0FE22480068224AB0FBF2F1B1F1807F40
:1005800000D31DE021F07F40401E4FF0E02250617B
:1005900050170F22002807DA13071D0E194B00F021
:1005A0000F04241F1D5503E013071C0E164B1C548B
:1005B00000BF00204FF0E02290610720106100BFD3
:1005C00070BD1248006820B110480068401E0F49F5
:1005D000086070470D49086000BF0C490968002990
:1005E000FBD1704700B5024603E04FF47A70FFF785
:1005F000F1FF1000A2F10102F7D100BD00000020C0
:1006000040420F0018ED00E000E400E0140000207C
:10061000704770477047754600F028F8AE460500F1
:100620006946534620F00700854618B020B5FFF70D
:10063000B9FDBDE820404FF000064FF000074FF035
:1006400000084FF0000B21F00701AC46ACE8C009F0
:10065000ACE8C009ACE8C009ACE8C0098D467047F9
:100660000446AFF300802046FFF787FD004870473F
:100670001800002001491820ABBEFEE7260002004A
:1006800070470000A40600080000002018000000C9
:1006900028010008BC0600081800002060060000C1
:1006A0004401000800A24A0400000000000000000D
:0C06B00001020304060708090000000016
:040000050800018965
:00000001FF
