:020000040800F2
:100000008006002089010008C9010008CB01000812
:10001000CF010008D3010008D7010008000000004C
:10002000000000000000000000000000DB010008EC
:10003000DD01000800000000DF010008E101000808
:10004000A3010008A3010008A3010008A301000800
:10005000A3010008A3010008A3010008A3010008F0
:10006000A3010008A3010008A3010008A3010008E0
:10007000A3010008A3010008A3010008A3010008D0
:10008000A3010008A3010008A3010008A3010008C0
:10009000A3010008A3010008A3010008A3010008B0
:1000A000A3010008A3010008A3010008A3010008A0
:1000B000A3010008A3010008A3010008A301000890
:1000C000A3010008A3010008A3010008A301000880
:1000D000A3010008A3010008A3010008A301000870
:1000E000A3010008A3010008A301000800F002F822
:1000F00000F03AF80AA090E8000C82448344AAF188
:100100000107DA4501D100F02FF8AFF2090EBAE885
:100110000F0013F0010F18BFFB1A43F0010318473B
:100120001804000038040000103A24BF78C878C1D1
:10013000FAD8520724BF30C830C144BF04680C60ED
:10014000704700000023002400250026103A28BF35
:1001500078C1FBD8520728BF30C148BF0B60704739
:100160001FB51FBD10B510BD00F0AFF91146FFF768
:10017000F7FF00F06FF900F0CDF903B4FFF7F2FFDD
:1001800003BC00F0D1F90000094880470948004746
:10019000FEE7FEE7FEE7FEE7FEE7FEE7FEE7FEE737
:1001A000FEE7FEE704480549054A064B7047000094
:1001B000C5020008ED000008800000208006002035
:1001C0008002002080020020704700BFFEE700BFD1
:1001D000FEE700BFFEE700BFFEE7704770477047CD
:1001E00010B500F01AF910BD0CB500200190009078
:1001F0006B48006840F480306949086000BF684877
:10020000006800F4003000900198401C01900098B4
:1002100018B90198B0F5A06FF1D16148006810F4E9
:10022000003F02D00120009001E0002000900098E3
:10023000012842D15B48006840F01000594908602D
:100240000846006820F0030008600846006840F097
:1002500002000860524840685149486008464068BA
:1002600048600846406840F480604860084640683E
:1002700020F47C1048600846406840F4E81048606C
:100280000846006840F08070086000BF444800687D
:1002900010F0007FFAD04248406820F00300404947
:1002A00048600846406840F00200486000BF3C4893
:1002B000406800F00C000828F9D10CBD10B5FFF71C
:1002C00093FF10BD10B53648006840F00100344976
:1002D000086008464068344908403149486008468B
:1002E0000068324908402E4908600846006820F43A
:1002F000802008600846406820F4FE0048604FF403
:100300001F008860FFF7DAFF4FF00060284908609F
:1003100010BD10B5002100200022214B5B6803F0C6
:100320000C0121B1042906D0082928D107E0214B6E
:10033000214C236027E01F4B1F4C236023E0184B08
:100340005B6803F47010164B5B6803F48032022381
:1003500003EB904022B9194B4343174C23600DE047
:100360000F4B5B6813F4003F04D0144B4343124C13
:10037000236003E00F4B43430F4C236003E00D4B1E
:100380000D4C236000BF00BF054B5B68C3F3031334
:100390000B4CE15C084B1B68CB40074C236010BD45
:1003A00000100240002002400000FFF8FFFFF6FEB0
:1003B00008ED00E000127A000000002000093D0076
:1003C0000400002070B5FFF7A4FF37480068374AE3
:1003D000B0FBF2F1B1F1807F00D31DE021F07F404E
:1003E000401E4FF0E022506150170F22002807DA1C
:1003F00013071D0E2E4B00F00F04241F1D5503E0A4
:1004000013071C0E2B4B1C5400BF00204FF0E022A2
:1004100090610720106100BF70BD2748006820B1BF
:1004200025480068401E244908607047224908603A
:1004300000BF214909680029FBD1704700B5024679
:1004400003E04FF47A70FFF7F1FF1000A2F1010210
:10045000F7D100BD1948806940F010001749886144
:100460001748406820F47000154948600846406805
:1004700040F400104860FFF7A5FF13E01048406902
:1004800040F400500E4948614FF4FA70FFF7D6FF70
:100490000B48006940F40050094908614FF4FA70B4
:1004A000FFF7CCFFEAE700000000002040420F0009
:1004B00018ED00E000E400E0180000200010024009
:1004C00000100140704770477047754600F028F8EB
:1004D000AE4605006946534620F00700854618B031
:1004E00020B5FFF75FFEBDE820404FF000064FF05B
:1004F00000074FF000084FF0000B21F00701AC4659
:10050000ACE8C009ACE8C009ACE8C009ACE8C00977
:100510008D4670470446AFF300802046FFF72DFE5E
:10052000004870471C00002001491820ABBEFEE7C0
:100530002600020070470000580500080000002057
:100540001C00000028010008740500081C000020A1
:10055000640600004401000800A24A0400000000F4
:100560000000000001020304060708090000000063
:040570000000000087
:040000050800018965
:00000001FF
